{
  "contractName": "ConvictionVotingCreditDelegation",
  "abi": [
    {
      "inputs": [
        {
          "internalType": "address",
          "name": "_requestToken",
          "type": "address"
        },
        {
          "internalType": "uint256",
          "name": "_decay",
          "type": "uint256"
        },
        {
          "internalType": "uint256",
          "name": "_maxRatio",
          "type": "uint256"
        },
        {
          "internalType": "uint256",
          "name": "_weight",
          "type": "uint256"
        },
        {
          "internalType": "uint256",
          "name": "_minThresholdStakePercentage",
          "type": "uint256"
        }
      ],
      "stateMutability": "nonpayable",
      "type": "constructor"
    },
    {
      "anonymous": false,
      "inputs": [
        {
          "indexed": false,
          "internalType": "uint256",
          "name": "decay",
          "type": "uint256"
        },
        {
          "indexed": false,
          "internalType": "uint256",
          "name": "maxRatio",
          "type": "uint256"
        },
        {
          "indexed": false,
          "internalType": "uint256",
          "name": "weight",
          "type": "uint256"
        },
        {
          "indexed": false,
          "internalType": "uint256",
          "name": "minThresholdStakePercentage",
          "type": "uint256"
        }
      ],
      "name": "ConvictionSettingsChanged",
      "type": "event"
    },
    {
      "anonymous": false,
      "inputs": [
        {
          "indexed": true,
          "internalType": "address",
          "name": "entity",
          "type": "address"
        },
        {
          "indexed": true,
          "internalType": "uint256",
          "name": "id",
          "type": "uint256"
        },
        {
          "indexed": false,
          "internalType": "string",
          "name": "title",
          "type": "string"
        },
        {
          "indexed": false,
          "internalType": "bytes",
          "name": "link",
          "type": "bytes"
        },
        {
          "indexed": false,
          "internalType": "uint256",
          "name": "amount",
          "type": "uint256"
        },
        {
          "indexed": false,
          "internalType": "address",
          "name": "beneficiary",
          "type": "address"
        }
      ],
      "name": "ProposalAdded",
      "type": "event"
    },
    {
      "anonymous": false,
      "inputs": [
        {
          "indexed": true,
          "internalType": "uint256",
          "name": "id",
          "type": "uint256"
        }
      ],
      "name": "ProposalCancelled",
      "type": "event"
    },
    {
      "anonymous": false,
      "inputs": [
        {
          "indexed": true,
          "internalType": "uint256",
          "name": "id",
          "type": "uint256"
        },
        {
          "indexed": false,
          "internalType": "uint256",
          "name": "conviction",
          "type": "uint256"
        }
      ],
      "name": "ProposalExecuted",
      "type": "event"
    },
    {
      "anonymous": false,
      "inputs": [
        {
          "indexed": true,
          "internalType": "address",
          "name": "entity",
          "type": "address"
        },
        {
          "indexed": true,
          "internalType": "uint256",
          "name": "id",
          "type": "uint256"
        },
        {
          "indexed": false,
          "internalType": "uint256",
          "name": "amount",
          "type": "uint256"
        },
        {
          "indexed": false,
          "internalType": "uint256",
          "name": "tokensStaked",
          "type": "uint256"
        },
        {
          "indexed": false,
          "internalType": "uint256",
          "name": "totalTokensStaked",
          "type": "uint256"
        },
        {
          "indexed": false,
          "internalType": "uint256",
          "name": "conviction",
          "type": "uint256"
        }
      ],
      "name": "StakeAdded",
      "type": "event"
    },
    {
      "anonymous": false,
      "inputs": [
        {
          "indexed": false,
          "internalType": "address",
          "name": "entity",
          "type": "address"
        },
        {
          "indexed": true,
          "internalType": "uint256",
          "name": "id",
          "type": "uint256"
        },
        {
          "indexed": false,
          "internalType": "uint256",
          "name": "amount",
          "type": "uint256"
        },
        {
          "indexed": false,
          "internalType": "uint256",
          "name": "tokensStaked",
          "type": "uint256"
        },
        {
          "indexed": false,
          "internalType": "uint256",
          "name": "totalTokensStaked",
          "type": "uint256"
        },
        {
          "indexed": false,
          "internalType": "uint256",
          "name": "conviction",
          "type": "uint256"
        }
      ],
      "name": "StakeWithdrawn",
      "type": "event"
    },
    {
      "inputs": [],
      "name": "CANCEL_PROPOSAL_ROLE",
      "outputs": [
        {
          "internalType": "bytes32",
          "name": "",
          "type": "bytes32"
        }
      ],
      "stateMutability": "view",
      "type": "function"
    },
    {
      "inputs": [],
      "name": "CREATE_PROPOSALS_ROLE",
      "outputs": [
        {
          "internalType": "bytes32",
          "name": "",
          "type": "bytes32"
        }
      ],
      "stateMutability": "view",
      "type": "function"
    },
    {
      "inputs": [],
      "name": "D",
      "outputs": [
        {
          "internalType": "uint256",
          "name": "",
          "type": "uint256"
        }
      ],
      "stateMutability": "view",
      "type": "function"
    },
    {
      "inputs": [],
      "name": "MAX_STAKED_PROPOSALS",
      "outputs": [
        {
          "internalType": "uint64",
          "name": "",
          "type": "uint64"
        }
      ],
      "stateMutability": "view",
      "type": "function"
    },
    {
      "inputs": [],
      "name": "ONE_HUNDRED_PERCENT",
      "outputs": [
        {
          "internalType": "uint256",
          "name": "",
          "type": "uint256"
        }
      ],
      "stateMutability": "view",
      "type": "function"
    },
    {
      "inputs": [],
      "name": "UPDATE_SETTINGS_ROLE",
      "outputs": [
        {
          "internalType": "bytes32",
          "name": "",
          "type": "bytes32"
        }
      ],
      "stateMutability": "view",
      "type": "function"
    },
    {
      "inputs": [],
      "name": "decay",
      "outputs": [
        {
          "internalType": "uint256",
          "name": "",
          "type": "uint256"
        }
      ],
      "stateMutability": "view",
      "type": "function"
    },
    {
      "inputs": [],
      "name": "maxRatio",
      "outputs": [
        {
          "internalType": "uint256",
          "name": "",
          "type": "uint256"
        }
      ],
      "stateMutability": "view",
      "type": "function"
    },
    {
      "inputs": [],
      "name": "minThresholdStakePercentage",
      "outputs": [
        {
          "internalType": "uint256",
          "name": "",
          "type": "uint256"
        }
      ],
      "stateMutability": "view",
      "type": "function"
    },
    {
      "inputs": [],
      "name": "owner",
      "outputs": [
        {
          "internalType": "address",
          "name": "",
          "type": "address"
        }
      ],
      "stateMutability": "view",
      "type": "function"
    },
    {
      "inputs": [],
      "name": "proposalCounter",
      "outputs": [
        {
          "internalType": "uint256",
          "name": "",
          "type": "uint256"
        }
      ],
      "stateMutability": "view",
      "type": "function"
    },
    {
      "inputs": [],
      "name": "requestToken",
      "outputs": [
        {
          "internalType": "address",
          "name": "",
          "type": "address"
        }
      ],
      "stateMutability": "view",
      "type": "function"
    },
    {
      "inputs": [],
      "name": "totalDeposited",
      "outputs": [
        {
          "internalType": "uint256",
          "name": "",
          "type": "uint256"
        }
      ],
      "stateMutability": "view",
      "type": "function"
    },
    {
      "inputs": [],
      "name": "totalStaked",
      "outputs": [
        {
          "internalType": "uint256",
          "name": "",
          "type": "uint256"
        }
      ],
      "stateMutability": "view",
      "type": "function"
    },
    {
      "inputs": [],
      "name": "weight",
      "outputs": [
        {
          "internalType": "uint256",
          "name": "",
          "type": "uint256"
        }
      ],
      "stateMutability": "view",
      "type": "function"
    },
    {
      "inputs": [
        {
          "internalType": "uint256",
          "name": "_decay",
          "type": "uint256"
        },
        {
          "internalType": "uint256",
          "name": "_maxRatio",
          "type": "uint256"
        },
        {
          "internalType": "uint256",
          "name": "_weight",
          "type": "uint256"
        },
        {
          "internalType": "uint256",
          "name": "_minThresholdStakePercentage",
          "type": "uint256"
        }
      ],
      "name": "setConvictionCalculationSettings",
      "outputs": [],
      "stateMutability": "nonpayable",
      "type": "function"
    },
    {
      "inputs": [
        {
          "internalType": "string",
          "name": "_title",
          "type": "string"
        },
        {
          "internalType": "bytes",
          "name": "_link",
          "type": "bytes"
        },
        {
          "internalType": "uint256",
          "name": "_requestedAmount",
          "type": "uint256"
        },
        {
          "internalType": "address",
          "name": "_beneficiary",
          "type": "address"
        }
      ],
      "name": "addProposal",
      "outputs": [],
      "stateMutability": "nonpayable",
      "type": "function"
    },
    {
      "inputs": [
        {
          "internalType": "uint256",
          "name": "_amount",
          "type": "uint256"
        },
        {
          "internalType": "bool",
          "name": "_isPull",
          "type": "bool"
        }
      ],
      "name": "depositCollateral",
      "outputs": [],
      "stateMutability": "nonpayable",
      "type": "function"
    },
    {
      "inputs": [
        {
          "internalType": "uint256",
          "name": "_proposalId",
          "type": "uint256"
        },
        {
          "internalType": "uint256",
          "name": "_amount",
          "type": "uint256"
        }
      ],
      "name": "borrowCredit",
      "outputs": [],
      "stateMutability": "nonpayable",
      "type": "function"
    },
    {
      "inputs": [
        {
          "internalType": "address",
          "name": "_delegator",
          "type": "address"
        },
        {
          "internalType": "address",
          "name": "_delegatee",
          "type": "address"
        },
        {
          "internalType": "address",
          "name": "_asset",
          "type": "address"
        }
      ],
      "name": "checkAllowance",
      "outputs": [
        {
          "internalType": "uint256",
          "name": "",
          "type": "uint256"
        }
      ],
      "stateMutability": "view",
      "type": "function"
    },
    {
      "inputs": [
        {
          "internalType": "uint256",
          "name": "_proposalId",
          "type": "uint256"
        },
        {
          "internalType": "uint256",
          "name": "_amount",
          "type": "uint256"
        }
      ],
      "name": "repayLoan",
      "outputs": [],
      "stateMutability": "nonpayable",
      "type": "function"
    },
    {
      "inputs": [
        {
          "internalType": "uint256",
          "name": "_proposalId",
          "type": "uint256"
        },
        {
          "internalType": "address",
          "name": "_asset",
          "type": "address"
        }
      ],
      "name": "withdrawCollateralFromProposal",
      "outputs": [],
      "stateMutability": "nonpayable",
      "type": "function"
    },
    {
      "inputs": [
        {
          "internalType": "address",
          "name": "_asset",
          "type": "address"
        }
      ],
      "name": "withdrawAllCollateral",
      "outputs": [],
      "stateMutability": "nonpayable",
      "type": "function"
    },
    {
      "inputs": [
        {
          "internalType": "uint256",
          "name": "_proposalId",
          "type": "uint256"
        },
        {
          "internalType": "uint256",
          "name": "_amount",
          "type": "uint256"
        }
      ],
      "name": "stakeToProposal",
      "outputs": [],
      "stateMutability": "nonpayable",
      "type": "function"
    },
    {
      "inputs": [
        {
          "internalType": "uint256",
          "name": "_proposalId",
          "type": "uint256"
        }
      ],
      "name": "stakeAllToProposal",
      "outputs": [],
      "stateMutability": "nonpayable",
      "type": "function"
    },
    {
      "inputs": [
        {
          "internalType": "uint256",
          "name": "_proposalId",
          "type": "uint256"
        },
        {
          "internalType": "uint256",
          "name": "_amount",
          "type": "uint256"
        }
      ],
      "name": "withdrawStakedFromProposal",
      "outputs": [],
      "stateMutability": "nonpayable",
      "type": "function"
    },
    {
      "inputs": [
        {
          "internalType": "uint256",
          "name": "_proposalId",
          "type": "uint256"
        }
      ],
      "name": "withdrawAllStakedFromProposal",
      "outputs": [],
      "stateMutability": "nonpayable",
      "type": "function"
    },
    {
      "inputs": [
        {
          "internalType": "uint256",
          "name": "_proposalId",
          "type": "uint256"
        }
      ],
      "name": "executeProposal",
      "outputs": [],
      "stateMutability": "nonpayable",
      "type": "function"
    },
    {
      "inputs": [
        {
          "internalType": "uint256",
          "name": "_proposalId",
          "type": "uint256"
        }
      ],
      "name": "cancelProposal",
      "outputs": [],
      "stateMutability": "nonpayable",
      "type": "function"
    },
    {
      "inputs": [
        {
          "internalType": "uint256",
          "name": "_proposalId",
          "type": "uint256"
        }
      ],
      "name": "getProposal",
      "outputs": [
        {
          "internalType": "uint256",
          "name": "requestedAmount",
          "type": "uint256"
        },
        {
          "internalType": "address",
          "name": "beneficiary",
          "type": "address"
        },
        {
          "internalType": "uint256",
          "name": "stakedTokens",
          "type": "uint256"
        },
        {
          "internalType": "uint256",
          "name": "convictionLast",
          "type": "uint256"
        },
        {
          "internalType": "uint64",
          "name": "blockLast",
          "type": "uint64"
        },
        {
          "internalType": "enum ConvictionVotingCreditDelegation.ProposalStatus",
          "name": "proposalStatus",
          "type": "uint8"
        },
        {
          "internalType": "address",
          "name": "submitter",
          "type": "address"
        }
      ],
      "stateMutability": "view",
      "type": "function"
    },
    {
      "inputs": [
        {
          "internalType": "uint256",
          "name": "_proposalId",
          "type": "uint256"
        },
        {
          "internalType": "address",
          "name": "_voter",
          "type": "address"
        }
      ],
      "name": "getProposalVoterStake",
      "outputs": [
        {
          "internalType": "uint256",
          "name": "",
          "type": "uint256"
        }
      ],
      "stateMutability": "view",
      "type": "function"
    },
    {
      "inputs": [
        {
          "internalType": "address",
          "name": "_voter",
          "type": "address"
        }
      ],
      "name": "getTotalVoterStake",
      "outputs": [
        {
          "internalType": "uint256",
          "name": "",
          "type": "uint256"
        }
      ],
      "stateMutability": "view",
      "type": "function"
    },
    {
      "inputs": [
        {
          "internalType": "address",
          "name": "_voter",
          "type": "address"
        }
      ],
      "name": "getVoterStakedProposals",
      "outputs": [
        {
          "internalType": "uint256[]",
          "name": "",
          "type": "uint256[]"
        }
      ],
      "stateMutability": "view",
      "type": "function"
    },
    {
      "inputs": [
        {
          "internalType": "uint64",
          "name": "_timePassed",
          "type": "uint64"
        },
        {
          "internalType": "uint256",
          "name": "_lastConv",
          "type": "uint256"
        },
        {
          "internalType": "uint256",
          "name": "_oldAmount",
          "type": "uint256"
        }
      ],
      "name": "calculateConviction",
      "outputs": [
        {
          "internalType": "uint256",
          "name": "",
          "type": "uint256"
        }
      ],
      "stateMutability": "view",
      "type": "function"
    },
    {
      "inputs": [
        {
          "internalType": "uint256",
          "name": "_requestedAmount",
          "type": "uint256"
        }
      ],
      "name": "calculateThreshold",
      "outputs": [
        {
          "internalType": "uint256",
          "name": "_threshold",
          "type": "uint256"
        }
      ],
      "stateMutability": "view",
      "type": "function"
    }
  ],
  "bytecode": "0x60806040523480156200001157600080fd5b506040516200580638038062005806833981810160405260a08110156200003757600080fd5b81019080805190602001909291908051906020019092919080519060200190929190805190602001909291908051906020019092919050505073652b2937efd0b5bea1c8d54293fc1289672afc6b6000806101000a81548173ffffffffffffffffffffffffffffffffffffffff021916908373ffffffffffffffffffffffffffffffffffffffff16021790555060008054906101000a900473ffffffffffffffffffffffffffffffffffffffff1673ffffffffffffffffffffffffffffffffffffffff16630261bf8b6040518163ffffffff1660e01b815260040160206040518083038186803b1580156200012b57600080fd5b505afa15801562000140573d6000803e3d6000fd5b505050506040513d60208110156200015757600080fd5b8101908080519060200190929190505050600160006101000a81548173ffffffffffffffffffffffffffffffffffffffff021916908373ffffffffffffffffffffffffffffffffffffffff16021790555033600260006101000a81548173ffffffffffffffffffffffffffffffffffffffff021916908373ffffffffffffffffffffffffffffffffffffffff160217905550600060088190555084600360006101000a81548173ffffffffffffffffffffffffffffffffffffffff021916908373ffffffffffffffffffffffffffffffffffffffff1602179055508360048190555082600581905550816006819055508060078190555050505050506155a380620002636000396000f3fe608060405234801561001057600080fd5b50600436106102115760003560e01c80638ca5f77211610125578063dac61260116100ad578063e0a8f6f51161007c578063e0a8f6f514610a70578063e0dd2c3814610a9e578063eeabf67e14610b00578063fc37005114610b1e578063ff50abdc14610b5657610211565b8063dac612601461097c578063db2d878c146109dc578063dd0081c7146109fa578063ddc90e7e14610a1857610211565b8063be8dca5b116100f4578063be8dca5b146107cd578063c35ac76d14610811578063c7f758a81461085d578063c9a3b2a21461090a578063d2b93bfd1461094257610211565b80638ca5f772146106b55780638da5cb5b1461074d578063a1aab33f14610781578063bd62e7d51461079f57610211565b80634d7ec628116101a85780636ae1e541116101775780636ae1e5411461058a57806376365af714610623578063817b1cd2146106415780638a700b531461065f5780638af07b101461069757610211565b80634d7ec628146104d85780634f629fbb1461050c57806354fac9191461052a57806359a5db8b1461054857610211565b80631df67d2f116101e45780631df67d2f146103fc578063219b28bc1461042a578063406244d8146104625780634317c0021461048a57610211565b806303341082146102165780630c0512e9146103925780630d61b519146103b05780630f529ba2146103de575b600080fd5b6103906004803603608081101561022c57600080fd5b810190808035906020019064010000000081111561024957600080fd5b82018360208201111561025b57600080fd5b8035906020019184600183028401116401000000008311171561027d57600080fd5b91908080601f016020809104026020016040519081016040528093929190818152602001838380828437600081840152601f19601f820116905080830192505050505050509192919290803590602001906401000000008111156102e057600080fd5b8201836020820111156102f257600080fd5b8035906020019184600183028401116401000000008311171561031457600080fd5b91908080601f016020809104026020016040519081016040528093929190818152602001838380828437600081840152601f19601f82011690508083019250505050505050919291929080359060200190929190803573ffffffffffffffffffffffffffffffffffffffff169060200190929190505050610b74565b005b61039a610de0565b6040518082815260200191505060405180910390f35b6103dc600480360360208110156103c657600080fd5b8101908080359060200190929190505050610de6565b005b6103e6611290565b6040518082815260200191505060405180910390f35b6104286004803603602081101561041257600080fd5b8101908080359060200190929190505050611297565b005b6104606004803603604081101561044057600080fd5b810190808035906020019092919080359060200190929190505050611404565b005b61046a611732565b604051808267ffffffffffffffff16815260200191505060405180910390f35b6104d6600480360360408110156104a057600080fd5b8101908080359060200190929190803573ffffffffffffffffffffffffffffffffffffffff169060200190929190505050611737565b005b6104e0611aef565b604051808273ffffffffffffffffffffffffffffffffffffffff16815260200191505060405180910390f35b610514611b15565b6040518082815260200191505060405180910390f35b610532611b39565b6040518082815260200191505060405180910390f35b6105746004803603602081101561055e57600080fd5b8101908080359060200190929190505050611b3f565b6040518082815260200191505060405180910390f35b6105cc600480360360208110156105a057600080fd5b81019080803573ffffffffffffffffffffffffffffffffffffffff169060200190929190505050611d3d565b6040518080602001828103825283818151815260200191508051906020019060200280838360005b8381101561060f5780820151818401526020810190506105f4565b505050509050019250505060405180910390f35b61062b611dd4565b6040518082815260200191505060405180910390f35b610649611dda565b6040518082815260200191505060405180910390f35b6106956004803603604081101561067557600080fd5b810190808035906020019092919080359060200190929190505050611de0565b005b61069f6120f9565b6040518082815260200191505060405180910390f35b610737600480360360608110156106cb57600080fd5b81019080803573ffffffffffffffffffffffffffffffffffffffff169060200190929190803573ffffffffffffffffffffffffffffffffffffffff169060200190929190803573ffffffffffffffffffffffffffffffffffffffff16906020019092919050505061211d565b6040518082815260200191505060405180910390f35b6107556122b8565b604051808273ffffffffffffffffffffffffffffffffffffffff16815260200191505060405180910390f35b6107896122de565b6040518082815260200191505060405180910390f35b6107cb600480360360208110156107b557600080fd5b81019080803590602001909291905050506122e4565b005b61080f600480360360208110156107e357600080fd5b81019080803573ffffffffffffffffffffffffffffffffffffffff169060200190929190505050612496565b005b61085b6004803603608081101561082757600080fd5b81019080803590602001909291908035906020019092919080359060200190929190803590602001909291905050506127d0565b005b6108896004803603602081101561087357600080fd5b810190808035906020019092919050505061296f565b604051808881526020018773ffffffffffffffffffffffffffffffffffffffff1681526020018681526020018581526020018467ffffffffffffffff1681526020018360038111156108d757fe5b81526020018273ffffffffffffffffffffffffffffffffffffffff16815260200197505050505050505060405180910390f35b6109406004803603604081101561092057600080fd5b810190808035906020019092919080359060200190929190505050612a2e565b005b61097a6004803603604081101561095857600080fd5b8101908080359060200190929190803515159060200190929190505050612b8e565b005b6109c66004803603606081101561099257600080fd5b81019080803567ffffffffffffffff1690602001909291908035906020019092919080359060200190929190505050612dfb565b6040518082815260200191505060405180910390f35b6109e4612eed565b6040518082815260200191505060405180910390f35b610a02612ef3565b6040518082815260200191505060405180910390f35b610a5a60048036036020811015610a2e57600080fd5b81019080803573ffffffffffffffffffffffffffffffffffffffff169060200190929190505050612eff565b6040518082815260200191505060405180910390f35b610a9c60048036036020811015610a8657600080fd5b8101908080359060200190929190505050612f48565b005b610aea60048036036040811015610ab457600080fd5b8101908080359060200190929190803573ffffffffffffffffffffffffffffffffffffffff16906020019092919050505061326b565b6040518082815260200191505060405180910390f35b610b086132c9565b6040518082815260200191505060405180910390f35b610b5460048036036040811015610b3457600080fd5b8101908080359060200190929190803590602001909291905050506132ed565b005b610b5e6132fc565b6040518082815260200191505060405180910390f35b6000600b6000600860008154809291906001019190505581526020019081526020016000209050828160000181905550818160010160006101000a81548173ffffffffffffffffffffffffffffffffffffffff021916908373ffffffffffffffffffffffffffffffffffffffff160217905550600081600201819055506000816003018190555060008160040160006101000a81548167ffffffffffffffff021916908367ffffffffffffffff16021790555060008160040160086101000a81548160ff02191690836003811115610c4857fe5b0217905550338160060160006101000a81548173ffffffffffffffffffffffffffffffffffffffff021916908373ffffffffffffffffffffffffffffffffffffffff1602179055506008543373ffffffffffffffffffffffffffffffffffffffff167f9fc9ab43300923a3b8d47f890603798c652956421ae650ed96c526f311d2c2ac878787876040518080602001806020018581526020018473ffffffffffffffffffffffffffffffffffffffff168152602001838103835287818151815260200191508051906020019080838360005b83811015610d35578082015181840152602081019050610d1a565b50505050905090810190601f168015610d625780820380516001836020036101000a031916815260200191505b50838103825286818151815260200191508051906020019080838360005b83811015610d9b578082015181840152602081019050610d80565b50505050905090810190601f168015610dc85780820380516001836020036101000a031916815260200191505b50965050505050505060405180910390a35050505050565b60085481565b806001811480610e595750600073ffffffffffffffffffffffffffffffffffffffff16600b600083815260200190815260200160002060060160009054906101000a900473ffffffffffffffffffffffffffffffffffffffff1673ffffffffffffffffffffffffffffffffffffffff1614155b6040518060400160405280601c81526020017f435643445f50524f504f53414c5f444f45535f4e4f545f45584953540000000081525090610f35576040517f08c379a00000000000000000000000000000000000000000000000000000000081526004018080602001828103825283818151815260200191508051906020019080838360005b83811015610efa578082015181840152602081019050610edf565b50505050905090810190601f168015610f275780820380516001836020036101000a031916815260200191505b509250505060405180910390fd5b506000600b6000848152602001908152602001600020905060008160000154116040518060600160405280602781526020016154e76027913990611014576040517f08c379a00000000000000000000000000000000000000000000000000000000081526004018080602001828103825283818151815260200191508051906020019080838360005b83811015610fd9578082015181840152602081019050610fbe565b50505050905090810190601f1680156110065780820380516001836020036101000a031916815260200191505b509250505060405180910390fd5b506000600381111561102257fe5b8160040160089054906101000a900460ff16600381111561103f57fe5b146040518060400160405280601881526020017f435643445f50524f504f53414c5f4e4f545f41435449564500000000000000008152509061111c576040517f08c379a00000000000000000000000000000000000000000000000000000000081526004018080602001828103825283818151815260200191508051906020019080838360005b838110156110e15780820151818401526020810190506110c6565b50505050905090810190601f16801561110e5780820380516001836020036101000a031916815260200191505b509250505060405180910390fd5b5061112b818260020154613302565b6111388160000154611b3f565b8160030154116040518060400160405280601b81526020017f435643445f494e53554646494349454e545f434f4e564943494f4e00000000008152509061121a576040517f08c379a00000000000000000000000000000000000000000000000000000000081526004018080602001828103825283818151815260200191508051906020019080838360005b838110156111df5780820151818401526020810190506111c4565b50505050905090810190601f16801561120c5780820380516001836020036101000a031916815260200191505b509250505060405180910390fd5b5060028160040160086101000a81548160ff0219169083600381111561123c57fe5b021790555061124f8382600001546133e6565b827ff758fc91e01b00ea6b4a6138756f7f28e021f9bf21db6dbf8c36c88eb737257a82600301546040518082815260200191505060405180910390a2505050565b6298968081565b6000600c60003373ffffffffffffffffffffffffffffffffffffffff1673ffffffffffffffffffffffffffffffffffffffff16815260200190815260200160002054146040518060400160405280601b81526020017f435643445f5354414b494e475f414c52454144595f5354414b45440000000000815250906113b6576040517f08c379a00000000000000000000000000000000000000000000000000000000081526004018080602001828103825283818151815260200191508051906020019080838360005b8381101561137b578082015181840152602081019050611360565b50505050905090810190601f1680156113a85780820380516001836020036101000a031916815260200191505b509250505060405180910390fd5b5061140181600d60003373ffffffffffffffffffffffffffffffffffffffff1673ffffffffffffffffffffffffffffffffffffffff16815260200190815260200160002054336135a2565b50565b6000600b600084815260200190815260200160002090508060010160009054906101000a900473ffffffffffffffffffffffffffffffffffffffff1673ffffffffffffffffffffffffffffffffffffffff163373ffffffffffffffffffffffffffffffffffffffff161461147757600080fd5b6002600381111561148457fe5b8160040160089054906101000a900460ff1660038111156114a157fe5b146114ab57600080fd5b816114d93033600360009054906101000a900473ffffffffffffffffffffffffffffffffffffffff1661211d565b1015604051806060016040528060218152602001615450602191399061159a576040517f08c379a00000000000000000000000000000000000000000000000000000000081526004018080602001828103825283818151815260200191508051906020019080838360005b8381101561155f578082015181840152602081019050611544565b50505050905090810190601f16801561158c5780820380516001836020036101000a031916815260200191505b509250505060405180910390fd5b50600160009054906101000a900473ffffffffffffffffffffffffffffffffffffffff1673ffffffffffffffffffffffffffffffffffffffff1663a415bcad600360009054906101000a900473ffffffffffffffffffffffffffffffffffffffff168460016000306040518663ffffffff1660e01b8152600401808673ffffffffffffffffffffffffffffffffffffffff1681526020018581526020018481526020018381526020018273ffffffffffffffffffffffffffffffffffffffff16815260200195505050505050600060405180830381600087803b15801561168057600080fd5b505af1158015611694573d6000803e3d6000fd5b505050506116ea82600e60003373ffffffffffffffffffffffffffffffffffffffff1673ffffffffffffffffffffffffffffffffffffffff16815260200190815260200160002054613dbe90919063ffffffff16565b600e60003373ffffffffffffffffffffffffffffffffffffffff1673ffffffffffffffffffffffffffffffffffffffff16815260200190815260200160002081905550505050565b600a81565b6000600b6000848152602001908152602001600020905060038081111561175a57fe5b8160040160089054906101000a900460ff16600381111561177757fe5b1461178157600080fd5b60008160050160003373ffffffffffffffffffffffffffffffffffffffff1673ffffffffffffffffffffffffffffffffffffffff168152602001908152602001600020549050600081116117d457600080fd5b600073744c1aaa95232eef8a9994c4e0b3a89659d9ab7973ffffffffffffffffffffffffffffffffffffffff1663d2493b6c856040518263ffffffff1660e01b8152600401808273ffffffffffffffffffffffffffffffffffffffff16815260200191505060606040518083038186803b15801561185157600080fd5b505afa158015611865573d6000803e3d6000fd5b505050506040513d606081101561187b57600080fd5b810190808051906020019092919080519060200190929190805190602001909291905050505050905060008173ffffffffffffffffffffffffffffffffffffffff166370a08231306040518263ffffffff1660e01b8152600401808273ffffffffffffffffffffffffffffffffffffffff16815260200191505060206040518083038186803b15801561190d57600080fd5b505afa158015611921573d6000803e3d6000fd5b505050506040513d602081101561193757600080fd5b81019080805190602001909291905050509050600160009054906101000a900473ffffffffffffffffffffffffffffffffffffffff1673ffffffffffffffffffffffffffffffffffffffff166369328dec8683336040518463ffffffff1660e01b8152600401808473ffffffffffffffffffffffffffffffffffffffff1681526020018381526020018273ffffffffffffffffffffffffffffffffffffffff1681526020019350505050602060405180830381600087803b1580156119fb57600080fd5b505af1158015611a0f573d6000803e3d6000fd5b505050506040513d6020811015611a2557600080fd5b810190808051906020019092919050505050611a8983600d60003373ffffffffffffffffffffffffffffffffffffffff1673ffffffffffffffffffffffffffffffffffffffff16815260200190815260200160002054613e4690919063ffffffff16565b600d60003373ffffffffffffffffffffffffffffffffffffffff1673ffffffffffffffffffffffffffffffffffffffff16815260200190815260200160002081905550611ae183600a54613e4690919063ffffffff16565b600a81905550505050505050565b600360009054906101000a900473ffffffffffffffffffffffffffffffffffffffff1681565b7f9d4f140430c9045e12b5a104aa9e641c09b980a26ab8e12a32a2f3d155229ae381565b60045481565b6000611b576298968083613e9090919063ffffffff16565b611b6e600a54600554613e9090919063ffffffff16565b116040518060400160405280601a81526020017f435643445f414d4f554e545f4f5645525f4d41585f524154494f00000000000081525090611c4b576040517f08c379a00000000000000000000000000000000000000000000000000000000081526004018080602001828103825283818151815260200191508051906020019080838360005b83811015611c10578082015181840152602081019050611bf5565b50505050905090810190601f168015611c3d5780820380516001836020036101000a031916815260200191505b509250505060405180910390fd5b506000611c94611c6a600a54604086901b613f1690919063ffffffff16565b611c86629896806040600554901b613f1690919063ffffffff16565b613e4690919063ffffffff16565b90506040611d33611ca3613f60565b611d25611cbe60045462989680613e4690919063ffffffff16565b611d1762989680611d096040611cdd8a8b613e9090919063ffffffff16565b901c611cfb629896806080600654901b613f1690919063ffffffff16565b613f1690919063ffffffff16565b613e9090919063ffffffff16565b613f1690919063ffffffff16565b613e9090919063ffffffff16565b901c915050919050565b6060600f60008373ffffffffffffffffffffffffffffffffffffffff1673ffffffffffffffffffffffffffffffffffffffff168152602001908152602001600020805480602002602001604051908101604052809291908181526020018280548015611dc857602002820191906000526020600020905b815481526020019060010190808311611db4575b50505050509050919050565b60055481565b60095481565b6000600b600084815260200190815260200160002090508060010160009054906101000a900473ffffffffffffffffffffffffffffffffffffffff1673ffffffffffffffffffffffffffffffffffffffff163373ffffffffffffffffffffffffffffffffffffffff1614611e5357600080fd5b80600001548214611e6357600080fd5b611eb2333084600360009054906101000a900473ffffffffffffffffffffffffffffffffffffffff1673ffffffffffffffffffffffffffffffffffffffff16613faf909392919063ffffffff16565b611f21600160009054906101000a900473ffffffffffffffffffffffffffffffffffffffff1683600360009054906101000a900473ffffffffffffffffffffffffffffffffffffffff1673ffffffffffffffffffffffffffffffffffffffff166140709092919063ffffffff16565b600160009054906101000a900473ffffffffffffffffffffffffffffffffffffffff1673ffffffffffffffffffffffffffffffffffffffff1663573ade81600360009054906101000a900473ffffffffffffffffffffffffffffffffffffffff16846001306040518563ffffffff1660e01b8152600401808573ffffffffffffffffffffffffffffffffffffffff1681526020018481526020018381526020018273ffffffffffffffffffffffffffffffffffffffff168152602001945050505050602060405180830381600087803b158015611ffd57600080fd5b505af1158015612011573d6000803e3d6000fd5b505050506040513d602081101561202757600080fd5b81019080805190602001909291905050505060038160040160086101000a81548160ff0219169083600381111561205a57fe5b02179055506120b182600e60003373ffffffffffffffffffffffffffffffffffffffff1673ffffffffffffffffffffffffffffffffffffffff16815260200190815260200160002054613e4690919063ffffffff16565b600e60003373ffffffffffffffffffffffffffffffffffffffff1673ffffffffffffffffffffffffffffffffffffffff16815260200190815260200160002081905550505050565b7f3e317d8f3de745777f176274dda437b0b9bbbe0704f48e9be1821136c177b93381565b60008073744c1aaa95232eef8a9994c4e0b3a89659d9ab7973ffffffffffffffffffffffffffffffffffffffff1663d2493b6c846040518263ffffffff1660e01b8152600401808273ffffffffffffffffffffffffffffffffffffffff16815260200191505060606040518083038186803b15801561219b57600080fd5b505afa1580156121af573d6000803e3d6000fd5b505050506040513d60608110156121c557600080fd5b81019080805190602001909291908051906020019092919080519060200190929190505050509150508073ffffffffffffffffffffffffffffffffffffffff16636bd76d2486866040518363ffffffff1660e01b8152600401808373ffffffffffffffffffffffffffffffffffffffff1681526020018273ffffffffffffffffffffffffffffffffffffffff1681526020019250505060206040518083038186803b15801561227357600080fd5b505afa158015612287573d6000803e3d6000fd5b505050506040513d602081101561229d57600080fd5b81019080805190602001909291905050509150509392505050565b600260009054906101000a900473ffffffffffffffffffffffffffffffffffffffff1681565b60065481565b8060018114806123575750600073ffffffffffffffffffffffffffffffffffffffff16600b600083815260200190815260200160002060060160009054906101000a900473ffffffffffffffffffffffffffffffffffffffff1673ffffffffffffffffffffffffffffffffffffffff1614155b6040518060400160405280601c81526020017f435643445f50524f504f53414c5f444f45535f4e4f545f45584953540000000081525090612433576040517f08c379a00000000000000000000000000000000000000000000000000000000081526004018080602001828103825283818151815260200191508051906020019080838360005b838110156123f85780820151818401526020810190506123dd565b50505050905090810190601f1680156124255780820380516001836020036101000a031916815260200191505b509250505060405180910390fd5b5061249282600b600085815260200190815260200160002060050160003373ffffffffffffffffffffffffffffffffffffffff1673ffffffffffffffffffffffffffffffffffffffff1681526020019081526020016000205433614235565b5050565b600073744c1aaa95232eef8a9994c4e0b3a89659d9ab7973ffffffffffffffffffffffffffffffffffffffff1663d2493b6c836040518263ffffffff1660e01b8152600401808273ffffffffffffffffffffffffffffffffffffffff16815260200191505060606040518083038186803b15801561251357600080fd5b505afa158015612527573d6000803e3d6000fd5b505050506040513d606081101561253d57600080fd5b810190808051906020019092919080519060200190929190805190602001909291905050505050905060008173ffffffffffffffffffffffffffffffffffffffff166370a08231306040518263ffffffff1660e01b8152600401808273ffffffffffffffffffffffffffffffffffffffff16815260200191505060206040518083038186803b1580156125cf57600080fd5b505afa1580156125e3573d6000803e3d6000fd5b505050506040513d60208110156125f957600080fd5b81019080805190602001909291905050509050600160009054906101000a900473ffffffffffffffffffffffffffffffffffffffff1673ffffffffffffffffffffffffffffffffffffffff166369328dec8483600260009054906101000a900473ffffffffffffffffffffffffffffffffffffffff166040518463ffffffff1660e01b8152600401808473ffffffffffffffffffffffffffffffffffffffff1681526020018381526020018273ffffffffffffffffffffffffffffffffffffffff1681526020019350505050602060405180830381600087803b1580156126df57600080fd5b505af11580156126f3573d6000803e3d6000fd5b505050506040513d602081101561270957600080fd5b81019080805190602001909291905050505061276d81600d60003373ffffffffffffffffffffffffffffffffffffffff1673ffffffffffffffffffffffffffffffffffffffff16815260200190815260200160002054613e4690919063ffffffff16565b600d60003373ffffffffffffffffffffffffffffffffffffffff1673ffffffffffffffffffffffffffffffffffffffff168152602001908152602001600020819055506127c581600a54613e4690919063ffffffff16565b600a81905550505050565b3373ffffffffffffffffffffffffffffffffffffffff16600260009054906101000a900473ffffffffffffffffffffffffffffffffffffffff1673ffffffffffffffffffffffffffffffffffffffff16146040518060400160405280601781526020017f435643445f4f4e4c595f4f574e45525f414c4c4f574544000000000000000000815250906128fd576040517f08c379a00000000000000000000000000000000000000000000000000000000081526004018080602001828103825283818151815260200191508051906020019080838360005b838110156128c25780820151818401526020810190506128a7565b50505050905090810190601f1680156128ef5780820380516001836020036101000a031916815260200191505b509250505060405180910390fd5b50836004819055508260058190555081600681905550806007819055507fab0e1d16e026a71973fa1c1862074f152ee6c430f36fce58005928c3bb158836848484846040518085815260200184815260200183815260200182815260200194505050505060405180910390a150505050565b600080600080600080600080600b60008a8152602001908152602001600020905080600001548160010160009054906101000a900473ffffffffffffffffffffffffffffffffffffffff16826002015483600301548460040160009054906101000a900467ffffffffffffffff168560040160089054906101000a900460ff168660060160009054906101000a900473ffffffffffffffffffffffffffffffffffffffff16975097509750975097509750975050919395979092949650565b816001811480612aa15750600073ffffffffffffffffffffffffffffffffffffffff16600b600083815260200190815260200160002060060160009054906101000a900473ffffffffffffffffffffffffffffffffffffffff1673ffffffffffffffffffffffffffffffffffffffff1614155b6040518060400160405280601c81526020017f435643445f50524f504f53414c5f444f45535f4e4f545f45584953540000000081525090612b7d576040517f08c379a00000000000000000000000000000000000000000000000000000000081526004018080602001828103825283818151815260200191508051906020019080838360005b83811015612b42578082015181840152602081019050612b27565b50505050905090810190601f168015612b6f5780820380516001836020036101000a031916815260200191505b509250505060405180910390fd5b50612b89838333614235565b505050565b8015612be457612be3333084600360009054906101000a900473ffffffffffffffffffffffffffffffffffffffff1673ffffffffffffffffffffffffffffffffffffffff16613faf909392919063ffffffff16565b5b612c53600160009054906101000a900473ffffffffffffffffffffffffffffffffffffffff1683600360009054906101000a900473ffffffffffffffffffffffffffffffffffffffff1673ffffffffffffffffffffffffffffffffffffffff166140709092919063ffffffff16565b600160009054906101000a900473ffffffffffffffffffffffffffffffffffffffff1673ffffffffffffffffffffffffffffffffffffffff1663e8eda9df600360009054906101000a900473ffffffffffffffffffffffffffffffffffffffff16843060006040518563ffffffff1660e01b8152600401808573ffffffffffffffffffffffffffffffffffffffff1681526020018481526020018373ffffffffffffffffffffffffffffffffffffffff168152602001828152602001945050505050600060405180830381600087803b158015612d2f57600080fd5b505af1158015612d43573d6000803e3d6000fd5b50505050612d9982600d60003373ffffffffffffffffffffffffffffffffffffffff1673ffffffffffffffffffffffffffffffffffffffff16815260200190815260200160002054613dbe90919063ffffffff16565b600d60003373ffffffffffffffffffffffffffffffffffffffff1673ffffffffffffffffffffffffffffffffffffffff16815260200190815260200160002081905550612df182600a54613dbe90919063ffffffff16565b600a819055505050565b6000808467ffffffffffffffff1690506000612e32612e2c629896806080600454901b613f1690919063ffffffff16565b83614842565b90506080612ee06f80000000000000000000000000000000612ed2612eb16004546298968003612ea3612e7f88700100000000000000000000000000000000613e4690919063ffffffff16565b612e95629896808d613e9090919063ffffffff16565b613e9090919063ffffffff16565b613f1690919063ffffffff16565b612ec48a87613e9090919063ffffffff16565b613dbe90919063ffffffff16565b613dbe90919063ffffffff16565b901c925050509392505050565b60075481565b670de0b6b3a764000081565b6000600c60008373ffffffffffffffffffffffffffffffffffffffff1673ffffffffffffffffffffffffffffffffffffffff168152602001908152602001600020549050919050565b806001811480612fbb5750600073ffffffffffffffffffffffffffffffffffffffff16600b600083815260200190815260200160002060060160009054906101000a900473ffffffffffffffffffffffffffffffffffffffff1673ffffffffffffffffffffffffffffffffffffffff1614155b6040518060400160405280601c81526020017f435643445f50524f504f53414c5f444f45535f4e4f545f45584953540000000081525090613097576040517f08c379a00000000000000000000000000000000000000000000000000000000081526004018080602001828103825283818151815260200191508051906020019080838360005b8381101561305c578082015181840152602081019050613041565b50505050905090810190601f1680156130895780820380516001836020036101000a031916815260200191505b509250505060405180910390fd5b506000600b600084815260200190815260200160002090503373ffffffffffffffffffffffffffffffffffffffff168160060160009054906101000a900473ffffffffffffffffffffffffffffffffffffffff1673ffffffffffffffffffffffffffffffffffffffff161461310b57600080fd5b6000600381111561311857fe5b8160040160089054906101000a900460ff16600381111561313557fe5b146040518060400160405280601881526020017f435643445f50524f504f53414c5f4e4f545f414354495645000000000000000081525090613212576040517f08c379a00000000000000000000000000000000000000000000000000000000081526004018080602001828103825283818151815260200191508051906020019080838360005b838110156131d75780820151818401526020810190506131bc565b50505050905090810190601f1680156132045780820380516001836020036101000a031916815260200191505b509250505060405180910390fd5b5060018160040160086101000a81548160ff0219169083600381111561323457fe5b0217905550827f416e669c63d9a3a5e36ee7cc7e2104b8db28ccd286aa18966e98fa230c73b08c60405160405180910390a2505050565b6000600b600084815260200190815260200160002060050160008373ffffffffffffffffffffffffffffffffffffffff1673ffffffffffffffffffffffffffffffffffffffff16815260200190815260200160002054905092915050565b7fbf05b9322505d747ab5880dfb677dc4864381e9fc3a25ccfa184a3a53d02f4b281565b6132f88282336135a2565b5050565b600a5481565b600061330c614936565b90508067ffffffffffffffff168360040160009054906101000a900467ffffffffffffffff1667ffffffffffffffff16111561334457fe5b8067ffffffffffffffff168360040160009054906101000a900467ffffffffffffffff1667ffffffffffffffff16141561337e57506133e2565b60006133a98460040160009054906101000a900467ffffffffffffffff168303856003015485612dfb565b9050818460040160006101000a81548167ffffffffffffffff021916908367ffffffffffffffff16021790555080846003018190555050505b5050565b6000600b60008481526020019081526020016000209050600073744c1aaa95232eef8a9994c4e0b3a89659d9ab7973ffffffffffffffffffffffffffffffffffffffff1663d2493b6c600360009054906101000a900473ffffffffffffffffffffffffffffffffffffffff166040518263ffffffff1660e01b8152600401808273ffffffffffffffffffffffffffffffffffffffff16815260200191505060606040518083038186803b15801561349c57600080fd5b505afa1580156134b0573d6000803e3d6000fd5b505050506040513d60608110156134c657600080fd5b81019080805190602001909291908051906020019092919080519060200190929190505050509150508073ffffffffffffffffffffffffffffffffffffffff1663c04a8a108360010160009054906101000a900473ffffffffffffffffffffffffffffffffffffffff16856040518363ffffffff1660e01b8152600401808373ffffffffffffffffffffffffffffffffffffffff16815260200182815260200192505050600060405180830381600087803b15801561358457600080fd5b505af1158015613598573d6000803e3d6000fd5b5050505050505050565b8260018114806136155750600073ffffffffffffffffffffffffffffffffffffffff16600b600083815260200190815260200160002060060160009054906101000a900473ffffffffffffffffffffffffffffffffffffffff1673ffffffffffffffffffffffffffffffffffffffff1614155b6040518060400160405280601c81526020017f435643445f50524f504f53414c5f444f45535f4e4f545f455849535400000000815250906136f1576040517f08c379a00000000000000000000000000000000000000000000000000000000081526004018080602001828103825283818151815260200191508051906020019080838360005b838110156136b657808201518184015260208101905061369b565b50505050905090810190601f1680156136e35780820380516001836020036101000a031916815260200191505b509250505060405180910390fd5b506000600b60008681526020019081526020016000209050600084116040518060400160405280601b81526020017f435643445f414d4f554e545f43414e5f4e4f545f42455f5a45524f0000000000815250906137e9576040517f08c379a00000000000000000000000000000000000000000000000000000000081526004018080602001828103825283818151815260200191508051906020019080838360005b838110156137ae578082015181840152602081019050613793565b50505050905090810190601f1680156137db5780820380516001836020036101000a031916815260200191505b509250505060405180910390fd5b50600060038111156137f757fe5b8160040160089054906101000a900460ff16600381111561381457fe5b146040518060400160405280601881526020017f435643445f50524f504f53414c5f4e4f545f4143544956450000000000000000815250906138f1576040517f08c379a00000000000000000000000000000000000000000000000000000000081526004018080602001828103825283818151815260200191508051906020019080838360005b838110156138b657808201518184015260208101905061389b565b50505050905090810190601f1680156138e35780820380516001836020036101000a031916815260200191505b509250505060405180910390fd5b506000613985600c60008673ffffffffffffffffffffffffffffffffffffffff1673ffffffffffffffffffffffffffffffffffffffff16815260200190815260200160002054600d60008773ffffffffffffffffffffffffffffffffffffffff1673ffffffffffffffffffffffffffffffffffffffff16815260200190815260200160002054613e4690919063ffffffff16565b9050808511156139ac576139ab6139a58287613e4690919063ffffffff16565b8561494d565b5b600d60008573ffffffffffffffffffffffffffffffffffffffff1673ffffffffffffffffffffffffffffffffffffffff16815260200190815260200160002054613a3e86600c60008873ffffffffffffffffffffffffffffffffffffffff1673ffffffffffffffffffffffffffffffffffffffff16815260200190815260200160002054613dbe90919063ffffffff16565b11156040518060400160405280602081526020017f435643445f5354414b494e475f4d4f52455f5448414e5f415641494c41424c4581525090613b1c576040517f08c379a00000000000000000000000000000000000000000000000000000000081526004018080602001828103825283818151815260200191508051906020019080838360005b83811015613ae1578082015181840152602081019050613ac6565b50505050905090810190601f168015613b0e5780820380516001836020036101000a031916815260200191505b509250505060405180910390fd5b50600082600201549050613b3d868460020154613dbe90919063ffffffff16565b8360020181905550613b99868460050160008873ffffffffffffffffffffffffffffffffffffffff1673ffffffffffffffffffffffffffffffffffffffff16815260200190815260200160002054613dbe90919063ffffffff16565b8360050160008773ffffffffffffffffffffffffffffffffffffffff1673ffffffffffffffffffffffffffffffffffffffff16815260200190815260200160002081905550613c3086600c60008873ffffffffffffffffffffffffffffffffffffffff1673ffffffffffffffffffffffffffffffffffffffff16815260200190815260200160002054613dbe90919063ffffffff16565b600c60008773ffffffffffffffffffffffffffffffffffffffff1673ffffffffffffffffffffffffffffffffffffffff16815260200190815260200160002081905550613c8886600954613dbe90919063ffffffff16565b60098190555060008360040160009054906101000a900467ffffffffffffffff1667ffffffffffffffff161415613cf057613cc1614936565b8360040160006101000a81548167ffffffffffffffff021916908367ffffffffffffffff160217905550613cfb565b613cfa8382613302565b5b613d058786614ae1565b868573ffffffffffffffffffffffffffffffffffffffff167f28d9b583e0c477691a08f6c1e00fedc0895ed4221487c627fa96a7024119f499888660050160008a73ffffffffffffffffffffffffffffffffffffffff1673ffffffffffffffffffffffffffffffffffffffff16815260200190815260200160002054876002015488600301546040518085815260200184815260200183815260200182815260200194505050505060405180910390a350505050505050565b600080828401905083811015613e3c576040517f08c379a000000000000000000000000000000000000000000000000000000000815260040180806020018281038252601b8152602001807f536166654d6174683a206164646974696f6e206f766572666c6f77000000000081525060200191505060405180910390fd5b8091505092915050565b6000613e8883836040518060400160405280601e81526020017f536166654d6174683a207375627472616374696f6e206f766572666c6f770000815250614c58565b905092915050565b600080831415613ea35760009050613f10565b6000828402905082848281613eb457fe5b0414613f0b576040517f08c379a00000000000000000000000000000000000000000000000000000000081526004018080602001828103825260218152602001806154c66021913960400191505060405180910390fd5b809150505b92915050565b6000613f5883836040518060400160405280601a81526020017f536166654d6174683a206469766973696f6e206279207a65726f000000000000815250614d18565b905092915050565b600080613f94670de0b6b3a7640000613f86600754600a54613e9090919063ffffffff16565b613f1690919063ffffffff16565b90508060095410613fa757600954613fa9565b805b91505090565b61406a846323b872dd60e01b858585604051602401808473ffffffffffffffffffffffffffffffffffffffff1681526020018373ffffffffffffffffffffffffffffffffffffffff1681526020018281526020019350505050604051602081830303815290604052907bffffffffffffffffffffffffffffffffffffffffffffffffffffffff19166020820180517bffffffffffffffffffffffffffffffffffffffffffffffffffffffff8381831617835250505050614dde565b50505050565b600081148061413e575060008373ffffffffffffffffffffffffffffffffffffffff1663dd62ed3e30856040518363ffffffff1660e01b8152600401808373ffffffffffffffffffffffffffffffffffffffff1681526020018273ffffffffffffffffffffffffffffffffffffffff1681526020019250505060206040518083038186803b15801561410157600080fd5b505afa158015614115573d6000803e3d6000fd5b505050506040513d602081101561412b57600080fd5b8101908080519060200190929190505050145b614193576040517f08c379a00000000000000000000000000000000000000000000000000000000081526004018080602001828103825260368152602001806155386036913960400191505060405180910390fd5b6142308363095ea7b360e01b8484604051602401808373ffffffffffffffffffffffffffffffffffffffff16815260200182815260200192505050604051602081830303815290604052907bffffffffffffffffffffffffffffffffffffffffffffffffffffffff19166020820180517bffffffffffffffffffffffffffffffffffffffffffffffffffffffff8381831617835250505050614dde565b505050565b6000600b600085815260200190815260200160002090506002600381111561425957fe5b8160040160089054906101000a900460ff16600381111561427657fe5b14156040518060600160405280602d8152602001615499602d913990614337576040517f08c379a00000000000000000000000000000000000000000000000000000000081526004018080602001828103825283818151815260200191508051906020019080838360005b838110156142fc5780820151818401526020810190506142e1565b50505050905090810190601f1680156143295780820380516001836020036101000a031916815260200191505b509250505060405180910390fd5b50828160050160008473ffffffffffffffffffffffffffffffffffffffff1673ffffffffffffffffffffffffffffffffffffffff1681526020019081526020016000205410156040518060400160405280601e81526020017f435643445f57495448445241575f4d4f52455f5448414e5f5354414b4544000081525090614459576040517f08c379a00000000000000000000000000000000000000000000000000000000081526004018080602001828103825283818151815260200191508051906020019080838360005b8381101561441e578082015181840152602081019050614403565b50505050905090810190601f16801561444b5780820380516001836020036101000a031916815260200191505b509250505060405180910390fd5b50600083116040518060400160405280601b81526020017f435643445f414d4f554e545f43414e5f4e4f545f42455f5a45524f00000000008152509061453a576040517f08c379a00000000000000000000000000000000000000000000000000000000081526004018080602001828103825283818151815260200191508051906020019080838360005b838110156144ff5780820151818401526020810190506144e4565b50505050905090810190601f16801561452c5780820380516001836020036101000a031916815260200191505b509250505060405180910390fd5b5060008160020154905061455b848360020154613e4690919063ffffffff16565b82600201819055506145b7848360050160008673ffffffffffffffffffffffffffffffffffffffff1673ffffffffffffffffffffffffffffffffffffffff16815260200190815260200160002054613e4690919063ffffffff16565b8260050160008573ffffffffffffffffffffffffffffffffffffffff1673ffffffffffffffffffffffffffffffffffffffff1681526020019081526020016000208190555061464e84600c60008673ffffffffffffffffffffffffffffffffffffffff1673ffffffffffffffffffffffffffffffffffffffff16815260200190815260200160002054613e4690919063ffffffff16565b600c60008573ffffffffffffffffffffffffffffffffffffffff1673ffffffffffffffffffffffffffffffffffffffff168152602001908152602001600020819055506146a684600954613e4690919063ffffffff16565b60098190555060008260050160008573ffffffffffffffffffffffffffffffffffffffff1673ffffffffffffffffffffffffffffffffffffffff1681526020019081526020016000205414156147495761474785600f60008673ffffffffffffffffffffffffffffffffffffffff1673ffffffffffffffffffffffffffffffffffffffff168152602001908152602001600020614ecd90919063ffffffff16565b505b6000600381111561475657fe5b8260040160089054906101000a900460ff16600381111561477357fe5b1415614784576147838282613302565b5b847f16f23283da3097bc9027dcdf31f24863b1520556f04818d406f0e6ecd08580f584868560050160008873ffffffffffffffffffffffffffffffffffffffff1673ffffffffffffffffffffffffffffffffffffffff1681526020019081526020016000205486600201548760030154604051808673ffffffffffffffffffffffffffffffffffffffff1681526020018581526020018481526020018381526020018281526020019550505050505060405180910390a25050505050565b600070010000000000000000000000000000000083106148ca576040517f08c379a000000000000000000000000000000000000000000000000000000000815260040180806020018281038252601c8152602001807f5f612073686f756c64206265206c657373207468616e20325e3132380000000081525060200191505060405180910390fd5b6000839050600083905070010000000000000000000000000000000092505b600081111561492e576000600182161415614916576149088283614f79565b9150600181901c9050614929565b6149208383614f79565b92506001810390505b6148e9565b505092915050565b60006149486149436150ac565b6150b4565b905090565b60008080600090506060600f60008673ffffffffffffffffffffffffffffffffffffffff1673ffffffffffffffffffffffffffffffffffffffff1681526020019081526020016000208054806020026020016040519081016040528092919081815260200182805480156149e057602002820191906000526020600020905b8154815260200190600101908083116149cc575b505050505090505b8051841080156149f757508582105b15614ad9576000818581518110614a0a57fe5b602002602001015190506000600b6000838152602001908152602001600020905060016003811115614a3857fe5b8160040160089054906101000a900460ff166003811115614a5557fe5b1415614aca578060050160008873ffffffffffffffffffffffffffffffffffffffff1673ffffffffffffffffffffffffffffffffffffffff1681526020019081526020016000205494506000851115614ac957614ab3828689614235565b614ac68585613dbe90919063ffffffff16565b93505b5b858060010196505050506149e8565b505050505050565b6000600f60008373ffffffffffffffffffffffffffffffffffffffff1673ffffffffffffffffffffffffffffffffffffffff1681526020019081526020016000209050614b3783826151c990919063ffffffff16565b614c5357600a67ffffffffffffffff168180549050106040518060400160405280601a81526020017f435643445f4d41585f50524f504f53414c535f5245414348454400000000000081525090614c29576040517f08c379a00000000000000000000000000000000000000000000000000000000081526004018080602001828103825283818151815260200191508051906020019080838360005b83811015614bee578082015181840152602081019050614bd3565b50505050905090810190601f168015614c1b5780820380516001836020036101000a031916815260200191505b509250505060405180910390fd5b50808390806001815401808255809150506001900390600052602060002001600090919091909150555b505050565b6000838311158290614d05576040517f08c379a00000000000000000000000000000000000000000000000000000000081526004018080602001828103825283818151815260200191508051906020019080838360005b83811015614cca578082015181840152602081019050614caf565b50505050905090810190601f168015614cf75780820380516001836020036101000a031916815260200191505b509250505060405180910390fd5b5060008385039050809150509392505050565b60008083118290614dc4576040517f08c379a00000000000000000000000000000000000000000000000000000000081526004018080602001828103825283818151815260200191508051906020019080838360005b83811015614d89578082015181840152602081019050614d6e565b50505050905090810190601f168015614db65780820380516001836020036101000a031916815260200191505b509250505060405180910390fd5b506000838581614dd057fe5b049050809150509392505050565b6060614e40826040518060400160405280602081526020017f5361666545524332303a206c6f772d6c6576656c2063616c6c206661696c65648152508573ffffffffffffffffffffffffffffffffffffffff1661521e9092919063ffffffff16565b9050600081511115614ec857808060200190516020811015614e6157600080fd5b8101908080519060200190929190505050614ec7576040517f08c379a000000000000000000000000000000000000000000000000000000000815260040180806020018281038252602a81526020018061550e602a913960400191505060405180910390fd5b5b505050565b6000808380549050905060005b81811015614f6c5783858281548110614eef57fe5b90600052602060002001541415614f5f57846001830381548110614f0f57fe5b9060005260206000200154858281548110614f2657fe5b906000526020600020018190555084805480614f3e57fe5b60019003818190600052602060002001600090559055600192505050614f73565b8080600101915050614eda565b5060009150505b92915050565b6000700100000000000000000000000000000000831115614fe5576040517f08c379a00000000000000000000000000000000000000000000000000000000081526004018080602001828103825260288152602001806154716028913960400191505060405180910390fd5b700100000000000000000000000000000000821061506b576040517f08c379a000000000000000000000000000000000000000000000000000000000815260040180806020018281038252601c8152602001807f5f622073686f756c64206265206c657373207468616e20325e3132380000000081525060200191505060405180910390fd5b60806150a26f800000000000000000000000000000006150948587613e9090919063ffffffff16565b613dbe90919063ffffffff16565b901c905092915050565b600043905090565b60007fffffffffffffffffffffffffffffffffffffffffffffffffffffffffffffffff67ffffffffffffffff168211156040518060400160405280601581526020017f55494e5436345f4e554d4245525f544f4f5f4249470000000000000000000000815250906151c0576040517f08c379a00000000000000000000000000000000000000000000000000000000081526004018080602001828103825283818151815260200191508051906020019080838360005b8381101561518557808201518184015260208101905061516a565b50505050905090810190601f1680156151b25780820380516001836020036101000a031916815260200191505b509250505060405180910390fd5b50819050919050565b600080600090505b838054905081101561521257828482815481106151ea57fe5b90600052602060002001541415615205576001915050615218565b80806001019150506151d1565b50600090505b92915050565b606061522d8484600085615236565b90509392505050565b60606152418561543c565b6152b3576040517f08c379a000000000000000000000000000000000000000000000000000000000815260040180806020018281038252601d8152602001807f416464726573733a2063616c6c20746f206e6f6e2d636f6e747261637400000081525060200191505060405180910390fd5b600060608673ffffffffffffffffffffffffffffffffffffffff1685876040518082805190602001908083835b6020831061530357805182526020820191506020810190506020830392506152e0565b6001836020036101000a03801982511681845116808217855250505050505090500191505060006040518083038185875af1925050503d8060008114615365576040519150601f19603f3d011682016040523d82523d6000602084013e61536a565b606091505b5091509150811561537f578092505050615434565b6000815111156153925780518082602001fd5b836040517f08c379a00000000000000000000000000000000000000000000000000000000081526004018080602001828103825283818151815260200191508051906020019080838360005b838110156153f95780820151818401526020810190506153de565b50505050905090810190601f1680156154265780820380516001836020036101000a031916815260200191505b509250505060405180910390fd5b949350505050565b600080823b90506000811191505091905056fe435643445f414c4c4f57414e43455f464f525f4352454449545f544f4f5f4c4f575f612073686f756c64206265206c657373207468616e206f7220657175616c20746f20325e313238435643445f43414e5f4e4f545f5748495448445241575f5748494c455f50524f4a4543545f4558454355544544536166654d6174683a206d756c7469706c69636174696f6e206f766572666c6f77435643445f43414e4e4f545f455845435554455f5a45524f5f56414c55455f50524f504f53414c5361666545524332303a204552433230206f7065726174696f6e20646964206e6f7420737563636565645361666545524332303a20617070726f76652066726f6d206e6f6e2d7a65726f20746f206e6f6e2d7a65726f20616c6c6f77616e6365a26469706673582212204c49391a16aa50303a11cb733d3ba91ebaf3d26841388534c3ac5dd42e4feeea64736f6c634300060c0033",
  "immutableReferences": {},
  "source": "// SPDX-License-Identifier:  MIT\npragma solidity >=0.6.12;\n\nimport {\n    ILendingPool,\n    IProtocolDataProvider,\n    IStableDebtToken,\n    ILendingPoolAddressesProvider\n} from \"./Interfaces.sol\";\nimport {IERC20} from \"./token/ERC20/IERC20.sol\";\nimport {SafeERC20} from \"./token/ERC20/SafeERC20.sol\";\nimport \"./math/SafeMath.sol\";\nimport \"./utils/ArrayUtils.sol\";\nimport \"./utils/TimeHelpers.sol\";\nimport \"./utils/MathHelpers.sol\";\n\n/**\n * @title Conviction Voting for Credit Delegation contract\n */\ncontract ConvictionVotingCreditDelegation is TimeHelpers {\n    using SafeMath for uint256;\n    using ArrayUtils for uint256[];\n    using SafeERC20 for IERC20;\n\n    ILendingPoolAddressesProvider provider;\n    ILendingPool lendingPool;\n    IProtocolDataProvider constant dataProvider =\n        IProtocolDataProvider(\n            address(0x744C1aaA95232EeF8A9994C4E0b3a89659D9AB79)\n        );\n\n    bytes32 public constant UPDATE_SETTINGS_ROLE =\n        keccak256(\"UPDATE_SETTINGS_ROLE\");\n    bytes32 public constant CREATE_PROPOSALS_ROLE =\n        keccak256(\"CREATE_PROPOSALS_ROLE\");\n    bytes32 public constant CANCEL_PROPOSAL_ROLE =\n        keccak256(\"CANCEL_PROPOSAL_ROLE\");\n\n    uint256 public constant D = 10000000;\n    uint256 public constant ONE_HUNDRED_PERCENT = 1e18;\n    uint256 private constant TWO_128 = 0x100000000000000000000000000000000; // 2^128\n    uint256 private constant TWO_127 = 0x80000000000000000000000000000000; // 2^127\n    uint256 private constant TWO_64 = 0x10000000000000000; // 2^64\n    uint64 public constant MAX_STAKED_PROPOSALS = 10;\n\n    string private constant ERROR_PROPOSAL_DOES_NOT_EXIST =\n        \"CVCD_PROPOSAL_DOES_NOT_EXIST\";\n    string private constant ERROR_STAKING_ALREADY_STAKED =\n        \"CVCD_STAKING_ALREADY_STAKED\";\n    string private constant ERROR_PROPOSAL_NOT_ACTIVE =\n        \"CVCD_PROPOSAL_NOT_ACTIVE\";\n    string private constant ERROR_CANNOT_EXECUTE_ABSTAIN_PROPOSAL =\n        \"CVCD_CANNOT_EXECUTE_ABSTAIN_PROPOSAL\";\n    string private constant ERROR_CANNOT_EXECUTE_ZERO_VALUE_PROPOSAL =\n        \"CVCD_CANNOT_EXECUTE_ZERO_VALUE_PROPOSAL\";\n    string private constant ERROR_INSUFFICIENT_CONVICION =\n        \"CVCD_INSUFFICIENT_CONVICION\";\n    string private constant ERROR_SENDER_CANNOT_CANCEL =\n        \"CVCD_SENDER_CANNOT_CANCEL\";\n    string private constant ERROR_CANNOT_CANCEL_ABSTAIN_PROPOSAL =\n        \"CVCD_CANNOT_CANCEL_ABSTAIN_PROPOSAL\";\n    string private constant ERROR_AMOUNT_OVER_MAX_RATIO =\n        \"CVCD_AMOUNT_OVER_MAX_RATIO\";\n    string private constant ERROR_INCORRECT_TOKEN_MANAGER_HOOK =\n        \"CVCD_INCORRECT_TOKEN_MANAGER_HOOK\";\n    string private constant ERROR_AMOUNT_CAN_NOT_BE_ZERO =\n        \"CVCD_AMOUNT_CAN_NOT_BE_ZERO\";\n    string private constant ERROR_STAKING_MORE_THAN_AVAILABLE =\n        \"CVCD_STAKING_MORE_THAN_AVAILABLE\";\n    string private constant ERROR_MAX_PROPOSALS_REACHED =\n        \"CVCD_MAX_PROPOSALS_REACHED\";\n    string private constant ERROR_WITHDRAW_MORE_THAN_STAKED =\n        \"CVCD_WITHDRAW_MORE_THAN_STAKED\";\n    string private constant ERROR_ONLY_OWNER =\n        \"CVCD_ONLY_OWNER_ALLOWED\";\n    string private constant ERROR_CAN_NOT_WHITHDRAW_WHILE_PROJECT_EXECUTED =\n        \"CVCD_CAN_NOT_WHITHDRAW_WHILE_PROJECT_EXECUTED\";\n    string private constant ERROR_ALLOWANCE_TOO_LOW =\n        \"CVCD_ALLOWANCE_FOR_CREDIT_TOO_LOW\";\n\n    enum ProposalStatus {Active, Cancelled, Executed, Repaid}\n\n    struct Proposal {\n        uint256 requestedAmount;\n        address beneficiary;\n        uint256 stakedTokens;\n        uint256 convictionLast;\n        uint64 blockLast;\n        ProposalStatus proposalStatus;\n        mapping(address => uint256) voterStake;\n        address submitter;\n    }\n\n    address public owner;\n    address public requestToken;\n    uint256 public decay;\n    uint256 public maxRatio;\n    uint256 public weight;\n    uint256 public minThresholdStakePercentage;\n    uint256 public proposalCounter;\n    uint256 public totalStaked;\n    uint256 public totalDeposited;\n\n    mapping(uint256 => Proposal) internal proposals;\n    mapping(address => uint256) internal totalVoterStake;\n    mapping(address => uint256) internal totalAccountDeposited;\n    mapping(address => uint256) internal totalAccountBorrowed;\n    mapping(address => uint256[]) internal voterStakedProposals;\n\n    event ConvictionSettingsChanged(\n        uint256 decay,\n        uint256 maxRatio,\n        uint256 weight,\n        uint256 minThresholdStakePercentage\n    );\n    event ProposalAdded(\n        address indexed entity,\n        uint256 indexed id,\n        string title,\n        bytes link,\n        uint256 amount,\n        address beneficiary\n    );\n    event StakeAdded(\n        address indexed entity,\n        uint256 indexed id,\n        uint256 amount,\n        uint256 tokensStaked,\n        uint256 totalTokensStaked,\n        uint256 conviction\n    );\n    event StakeWithdrawn(\n        address entity,\n        uint256 indexed id,\n        uint256 amount,\n        uint256 tokensStaked,\n        uint256 totalTokensStaked,\n        uint256 conviction\n    );\n    event ProposalExecuted(uint256 indexed id, uint256 conviction);\n    event ProposalCancelled(uint256 indexed id);\n\n    modifier onlyOwner() {\n        require(owner == msg.sender, ERROR_ONLY_OWNER);\n        _;\n    }\n\n    modifier proposalExists(uint256 _proposalId) {\n        require(\n            _proposalId == 1 || proposals[_proposalId].submitter != address(0),\n            ERROR_PROPOSAL_DOES_NOT_EXIST\n        );\n        _;\n    }\n\n    constructor(\n        address _requestToken,\n        uint256 _decay,\n        uint256 _maxRatio,\n        uint256 _weight,\n        uint256 _minThresholdStakePercentage\n    ) public {\n        // Kovan Aave\n        provider = ILendingPoolAddressesProvider(\n            address(0x652B2937Efd0B5beA1c8d54293FC1289672AFC6b)\n        );\n        lendingPool = ILendingPool(provider.getLendingPool());\n        owner = msg.sender;\n        proposalCounter = 0;\n        requestToken = _requestToken;\n        decay = _decay;\n        maxRatio = _maxRatio;\n        weight = _weight;\n        minThresholdStakePercentage = _minThresholdStakePercentage;\n    }\n\n    /**\n     * @notice Update the conviction voting parameters\n     * @param _decay The rate at which conviction is accrued or lost from a proposal\n     * @param _maxRatio Proposal threshold parameter\n     * @param _weight Proposal threshold parameter\n     * @param _minThresholdStakePercentage The minimum percent of stake token max supply that is used for calculating\n        conviction\n     */\n    function setConvictionCalculationSettings(\n        uint256 _decay,\n        uint256 _maxRatio,\n        uint256 _weight,\n        uint256 _minThresholdStakePercentage\n    ) public onlyOwner() {\n        decay = _decay;\n        maxRatio = _maxRatio;\n        weight = _weight;\n        minThresholdStakePercentage = _minThresholdStakePercentage;\n\n        emit ConvictionSettingsChanged(\n            _decay,\n            _maxRatio,\n            _weight,\n            _minThresholdStakePercentage\n        );\n    }\n\n    /**\n     * @notice Add proposal `_title` for  `@tokenAmount((self.requestToken(): address), _requestedAmount)` to `_beneficiary`\n     * @param _title Title of the proposal\n     * @param _link IPFS or HTTP link with proposal's description\n     * @param _requestedAmount Tokens requested\n     * @param _beneficiary Address that will receive payment\n     */\n    function addProposal(\n        string memory _title,\n        bytes memory _link,\n        uint256 _requestedAmount,\n        address _beneficiary\n    ) external {\n        Proposal storage newProposal = proposals[proposalCounter++];\n        newProposal.requestedAmount = _requestedAmount;\n        newProposal.beneficiary = _beneficiary;\n        newProposal.stakedTokens = 0;\n        newProposal.convictionLast = 0;\n        newProposal.blockLast = 0;\n        newProposal.proposalStatus = ProposalStatus.Active;\n        newProposal.submitter = msg.sender;\n\n        emit ProposalAdded(\n            msg.sender,\n            proposalCounter,\n            _title,\n            _link,\n            _requestedAmount,\n            _beneficiary\n        );\n    }\n\n    /**\n     * Deposits collateral into Aave to enable credit delegation\n     * This would be called by the delegator.\n     * @param _amount The amount to be deposited as collateral\n     * @param _isPull Whether to pull the funds from the caller, or use funds sent to this contract\n     *  User must have approved this contract to pull funds if `isPull` = true\n     *\n     */\n    function depositCollateral(uint256 _amount, bool _isPull) public {\n        if (_isPull) {\n            IERC20(requestToken).safeTransferFrom(msg.sender, address(this), _amount);\n        }\n        IERC20(requestToken).safeApprove(address(lendingPool), _amount);\n        lendingPool.deposit(requestToken, _amount, address(this), 0);\n\n        totalAccountDeposited[msg.sender] = totalAccountDeposited[msg.sender]\n            .add(_amount);\n        totalDeposited = totalDeposited.add(_amount);\n    }\n\n\n    /**\n     * Borrows part of the uncollaterised loan\n     * @param _proposalId Id of the proposal\n     * @param _amount The amount the borrower is allowed to borrow (i.e. their line of credit)\n     */\n    function borrowCredit(uint256 _proposalId, uint256 _amount) public {\n        Proposal storage proposal = proposals[_proposalId];\n        require(msg.sender == proposal.beneficiary);\n        require(proposal.proposalStatus == ProposalStatus.Executed);\n        require(\n            checkAllowance(address(this), msg.sender, requestToken) >= _amount,\n            ERROR_ALLOWANCE_TOO_LOW\n        );\n        lendingPool.borrow(requestToken, _amount, 1, 0, address(this));\n\n        totalAccountBorrowed[msg.sender] = totalAccountBorrowed[msg.sender].add(\n            _amount\n        );\n    }\n\n    /**\n     * Checks allowance for loan\n     * @param _delegator The delegator of the funds\n     * @param _delegatee The delegatee of the funds\n     * @param _asset The asset they are allowed to borrow\n     */\n    function checkAllowance(\n        address _delegator,\n        address _delegatee,\n        address _asset\n    ) public view returns (uint256) {\n        (, address stableDebtTokenAddress, ) =\n            dataProvider.getReserveTokensAddresses(_asset);\n        return\n            IStableDebtToken(stableDebtTokenAddress).borrowAllowance(\n                _delegator,\n                _delegatee\n            );\n    }\n\n    /**\n     * Repay an uncollaterised loan\n     * @param _proposalId Id of the proposal\n     * @param _amount The amount to repay\n     *\n     * User calling this function must have approved this contract with an allowance to transfer the tokens\n     *\n     * You should keep internal accounting of borrowers, if your contract will have multiple borrowers\n     */\n    function repayLoan(uint256 _proposalId, uint256 _amount) public {\n        // TODO: Check how much the sender has to repay\n        Proposal storage proposal = proposals[_proposalId];\n        require(msg.sender == proposal.beneficiary);\n        // TODO: check if the amount is accurate\n        require(_amount == proposal.requestedAmount);\n        IERC20(requestToken).safeTransferFrom(msg.sender, address(this), _amount);\n        IERC20(requestToken).safeApprove(address(lendingPool), _amount);\n        lendingPool.repay(requestToken, _amount, 1, address(this));\n\n        proposal.proposalStatus = ProposalStatus.Repaid;\n        totalAccountBorrowed[msg.sender] = totalAccountBorrowed[msg.sender].sub(\n            _amount\n        );\n    }\n\n    /**\n     * Withdraw all of a collateral of the underlying asset, if no outstanding loans delegated\n     * @param _asset The underlying asset to withdraw\n     *\n     * Add permissions to this call, e.g. only the owner should be able to withdraw the collateral!\n     */\n    function withdrawCollateralFromProposal(uint256 _proposalId, address _asset) public {\n        Proposal storage proposal = proposals[_proposalId];\n        require(proposal.proposalStatus == ProposalStatus.Repaid);\n        uint256 voterStaked = proposal.voterStake[msg.sender];\n        require(voterStaked > 0);\n        (address aTokenAddress, , ) =\n            dataProvider.getReserveTokensAddresses(_asset);\n        uint256 assetBalance = IERC20(aTokenAddress).balanceOf(address(this));\n        lendingPool.withdraw(_asset, assetBalance, msg.sender);\n        totalAccountDeposited[msg.sender] = totalAccountDeposited[msg.sender].sub(voterStaked);\n\t\ttotalDeposited = totalDeposited.sub(voterStaked);\n    }\n\n    /**\n     * Withdraw all of a collateral of the underlying asset, if no outstanding loans delegated\n     * @param _asset The underlying asset to withdraw\n     *\n     * Add permissions to this call, e.g. only the owner should be able to withdraw the collateral!\n     */\n    function withdrawAllCollateral(address _asset) public {\n        (address aTokenAddress, , ) =\n            dataProvider.getReserveTokensAddresses(_asset);\n        // TODO: change the assetBalance here and the receiver of the rewards\n        uint256 assetBalance = IERC20(aTokenAddress).balanceOf(address(this));\n        lendingPool.withdraw(_asset, assetBalance, owner);\n        totalAccountDeposited[msg.sender] = totalAccountDeposited[msg.sender].sub(assetBalance);\n\t\ttotalDeposited = totalDeposited.sub(assetBalance);\n    }\n\n    /**\n     * @notice Stake `@tokenAmount((self.stakeToken(): address), _amount)` on proposal #`_proposalId`\n     * @param _proposalId Proposal id\n     * @param _amount Amount of tokens staked\n     */\n    function stakeToProposal(uint256 _proposalId, uint256 _amount) external {\n        _stake(_proposalId, _amount, msg.sender);\n    }\n\n    /**\n     * @notice Stake all my `(self.stakeToken(): address).symbol(): string` tokens on proposal #`_proposalId`\n     * @param _proposalId Proposal id\n     */\n    function stakeAllToProposal(uint256 _proposalId) external {\n        require(totalVoterStake[msg.sender] == 0, ERROR_STAKING_ALREADY_STAKED);\n        _stake(_proposalId, totalAccountDeposited[msg.sender], msg.sender);\n    }\n\n    /**\n     * @notice Withdraw `@tokenAmount((self.stakeToken(): address), _amount)` previously staked on proposal #`_proposalId`\n     * @param _proposalId Proposal id\n     * @param _amount Amount of tokens withdrawn\n     */\n    function withdrawStakedFromProposal(uint256 _proposalId, uint256 _amount)\n        external\n        proposalExists(_proposalId)\n    {\n        _withdrawStakedFromProposal(_proposalId, _amount, msg.sender);\n    }\n\n    /**\n     * @notice Withdraw all `(self.stakeToken(): address).symbol(): string` tokens previously staked on proposal #`_proposalId`\n     * @param _proposalId Proposal id\n     */\n    function withdrawAllStakedFromProposal(uint256 _proposalId)\n        external\n        proposalExists(_proposalId)\n    {\n        _withdrawStakedFromProposal(\n            _proposalId,\n            proposals[_proposalId].voterStake[msg.sender],\n            msg.sender\n        );\n    }\n\n    /**\n     * @notice Execute proposal #`_proposalId`\n     * @dev ...by sending `@tokenAmount((self.requestToken(): address), self.getPropoal(_proposalId): ([uint256], address, uint256, uint256, uint64, bool))` to `self.getPropoal(_proposalId): (uint256, [address], uint256, uint256, uint64, bool)`\n     * @param _proposalId Proposal id\n     */\n    function executeProposal(uint256 _proposalId)\n        external\n        proposalExists(_proposalId)\n    {\n        Proposal storage proposal = proposals[_proposalId];\n\n        require(\n            proposal.requestedAmount > 0,\n            ERROR_CANNOT_EXECUTE_ZERO_VALUE_PROPOSAL\n        );\n        require(\n            proposal.proposalStatus == ProposalStatus.Active,\n            ERROR_PROPOSAL_NOT_ACTIVE\n        );\n        _calculateAndSetConviction(proposal, proposal.stakedTokens);\n        require(\n            proposal.convictionLast >\n                calculateThreshold(proposal.requestedAmount),\n            ERROR_INSUFFICIENT_CONVICION\n        );\n\n        proposal.proposalStatus = ProposalStatus.Executed;\n        _approveBorrower(_proposalId, proposal.requestedAmount);\n\n        emit ProposalExecuted(_proposalId, proposal.convictionLast);\n    }\n\n    /**\n     * @notice Cancel proposal #`_proposalId`\n     * @param _proposalId Proposal id\n     */\n    function cancelProposal(uint256 _proposalId)\n        external\n        proposalExists(_proposalId)\n    {\n        Proposal storage proposal = proposals[_proposalId];\n\n        require(proposal.submitter == msg.sender);\n        require(\n            proposal.proposalStatus == ProposalStatus.Active,\n            ERROR_PROPOSAL_NOT_ACTIVE\n        );\n\n        proposal.proposalStatus = ProposalStatus.Cancelled;\n\n        emit ProposalCancelled(_proposalId);\n    }\n\n    /**\n     * @dev Get proposal details\n     * @param _proposalId Proposal id\n     * @return requestedAmount Requested amount\n     * @return beneficiary Beneficiary address\n     * @return stakedTokens Current total stake of tokens on this proposal\n     * @return convictionLast Conviction this proposal had last time calculateAndSetConviction was called\n     * @return blockLast Block when calculateAndSetConviction was called\n     * @return proposalStatus ProposalStatus defining the state of the proposal\n     * @return submitter Submitter of the proposal\n     */\n    function getProposal(uint256 _proposalId)\n        public\n        view\n        returns (\n            uint256 requestedAmount,\n            address beneficiary,\n            uint256 stakedTokens,\n            uint256 convictionLast,\n            uint64 blockLast,\n            ProposalStatus proposalStatus,\n            address submitter\n        )\n    {\n        Proposal storage proposal = proposals[_proposalId];\n        return (\n            proposal.requestedAmount,\n            proposal.beneficiary,\n            proposal.stakedTokens,\n            proposal.convictionLast,\n            proposal.blockLast,\n            proposal.proposalStatus,\n            proposal.submitter\n        );\n    }\n\n    /**\n     * @notice Get stake of voter `_voter` on proposal #`_proposalId`\n     * @param _proposalId Proposal id\n     * @param _voter Voter address\n     * @return Proposal voter stake\n     */\n    function getProposalVoterStake(uint256 _proposalId, address _voter)\n        public\n        view\n        returns (uint256)\n    {\n        return proposals[_proposalId].voterStake[_voter];\n    }\n\n    /**\n     * @notice Get the total stake of voter `_voter` on all proposals\n     * @param _voter Voter address\n     * @return Total voter stake\n     */\n    function getTotalVoterStake(address _voter) public view returns (uint256) {\n        return totalVoterStake[_voter];\n    }\n\n    /**\n     * @notice Get all proposal ID's voter `_voter` has currently staked to\n     * @param _voter Voter address\n     * @return Voter proposals\n     */\n    function getVoterStakedProposals(address _voter)\n        public\n        view\n        returns (uint256[] memory)\n    {\n        return voterStakedProposals[_voter];\n    }\n\n    /**\n     * @dev Conviction formula: a^t * y(0) + x * (1 - a^t) / (1 - a)\n     * Solidity implementation: y = (2^128 * a^t * y0 + x * D * (2^128 - 2^128 * a^t) / (D - aD) + 2^127) / 2^128\n     * @param _timePassed Number of blocks since last conviction record\n     * @param _lastConv Last conviction record\n     * @param _oldAmount Amount of tokens staked until now\n     * @return Current conviction\n     */\n    function calculateConviction(\n        uint64 _timePassed,\n        uint256 _lastConv,\n        uint256 _oldAmount\n    ) public view returns (uint256) {\n        uint256 t = uint256(_timePassed);\n        // atTWO_128 = 2^128 * a^t\n        uint256 atTWO_128 = _pow((decay << 128).div(D), t);\n        // solium-disable-previous-line\n        // conviction = (atTWO_128 * _lastConv + _oldAmount * D * (2^128 - atTWO_128) / (D - aD) + 2^127) / 2^128\n        return\n            (\n                atTWO_128.mul(_lastConv).add(\n                    _oldAmount.mul(D).mul(TWO_128.sub(atTWO_128)).div(D - decay)\n                )\n            )\n                .add(TWO_127) >> 128;\n    }\n\n    /**\n     * @dev Formula:  * totalStaked / (1 - a) / ( - requestedAmount / total)**2\n     * For the Solidity implementation we amplify  and  and simplify the formula:\n     * weight =  * D\n     * maxRatio =  * D\n     * decay = a * D\n     * threshold = weight * totalStaked * D ** 2 * funds ** 2 / (D - decay) / (maxRatio * funds - requestedAmount * D) ** 2\n     * @param _requestedAmount Requested amount of tokens on certain proposal\n     * @return _threshold Threshold a proposal's conviction should surpass in order to be able to\n     * executed it.\n     */\n    function calculateThreshold(uint256 _requestedAmount)\n        public\n        view\n        returns (uint256 _threshold)\n    {\n        require(\n            maxRatio.mul(totalDeposited) > _requestedAmount.mul(D),\n            ERROR_AMOUNT_OVER_MAX_RATIO\n        );\n        // denom = maxRatio * 2 ** 64 / D  - requestedAmount * 2 ** 64 / funds\n        uint256 denom =\n            (maxRatio << 64).div(D).sub(\n                (_requestedAmount << 64).div(totalDeposited)\n            );\n        // _threshold = (weight * 2 ** 128 / D) / (denom ** 2 / 2 ** 64) * totalStaked * D / 2 ** 128\n        _threshold =\n            ((weight << 128).div(D).div(denom.mul(denom) >> 64))\n                .mul(D)\n                .div(D.sub(decay))\n                .mul(_totalStaked()) >>\n            64;\n    }\n\n    function _approveBorrower(uint256 _proposalId, uint256 _amount) internal {\n        Proposal storage proposal = proposals[_proposalId];\n        (, address stableDebtTokenAddress, ) = dataProvider.getReserveTokensAddresses(requestToken);\n        IStableDebtToken(stableDebtTokenAddress).approveDelegation(\n            proposal.beneficiary,\n            _amount\n        );\n    }\n\n    function _totalStaked() internal view returns (uint256) {\n        uint256 minTotalStake =\n            (totalDeposited.mul(minThresholdStakePercentage)).div(\n                ONE_HUNDRED_PERCENT\n            );\n        return totalStaked < minTotalStake ? minTotalStake : totalStaked;\n    }\n\n    /**\n     * Multiply _a by _b / 2^128.  Parameter _a should be less than or equal to\n     * 2^128 and parameter _b should be less than 2^128.\n     * @param _a left argument\n     * @param _b right argument\n     * @return _result _a * _b / 2^128\n     */\n    function _mul(uint256 _a, uint256 _b)\n        internal\n        pure\n        returns (uint256 _result)\n    {\n        require(_a <= TWO_128, \"_a should be less than or equal to 2^128\");\n        require(_b < TWO_128, \"_b should be less than 2^128\");\n        return _a.mul(_b).add(TWO_127) >> 128;\n    }\n\n    /**\n     * Calculate (_a / 2^128)^_b * 2^128.  Parameter _a should be less than 2^128.\n     *\n     * @param _a left argument\n     * @param _b right argument\n     * @return _result (_a / 2^128)^_b * 2^128\n     */\n    function _pow(uint256 _a, uint256 _b)\n        internal\n        pure\n        returns (uint256 _result)\n    {\n        require(_a < TWO_128, \"_a should be less than 2^128\");\n        uint256 a = _a;\n        uint256 b = _b;\n        _result = TWO_128;\n        while (b > 0) {\n            if (b & 1 == 0) {\n                a = _mul(a, a);\n                b >>= 1;\n            } else {\n                _result = _mul(_result, a);\n                b -= 1;\n            }\n        }\n    }\n\n    /**\n     * @dev Calculate conviction and store it on the proposal\n     * @param _proposal Proposal\n     * @param _oldStaked Amount of tokens staked on a proposal until now\n     */\n    function _calculateAndSetConviction(\n        Proposal storage _proposal,\n        uint256 _oldStaked\n    ) internal {\n        uint64 blockNumber = getBlockNumber64();\n        assert(_proposal.blockLast <= blockNumber);\n        if (_proposal.blockLast == blockNumber) {\n            return; // Conviction already stored\n        }\n        // calculateConviction and store it\n        uint256 conviction =\n            calculateConviction(\n                blockNumber - _proposal.blockLast, // we assert it doesn't overflow above\n                _proposal.convictionLast,\n                _oldStaked\n            );\n        _proposal.blockLast = blockNumber;\n        _proposal.convictionLast = conviction;\n    }\n\n    /**\n     * @dev Stake an amount of tokens on a proposal\n     * @param _proposalId Proposal id\n     * @param _amount Amount of staked tokens\n     * @param _from Account from which we stake\n     */\n    function _stake(\n        uint256 _proposalId,\n        uint256 _amount,\n        address _from\n    ) internal proposalExists(_proposalId) {\n        Proposal storage proposal = proposals[_proposalId];\n        require(_amount > 0, ERROR_AMOUNT_CAN_NOT_BE_ZERO);\n        require(\n            proposal.proposalStatus == ProposalStatus.Active,\n            ERROR_PROPOSAL_NOT_ACTIVE\n        );\n\n        uint256 unstakedAmount =\n            totalAccountDeposited[_from].sub(totalVoterStake[_from]);\n        if (_amount > unstakedAmount) {\n            _withdrawInactiveStakedTokens(_amount.sub(unstakedAmount), _from);\n        }\n\n        require(\n            totalVoterStake[_from].add(_amount) <= totalAccountDeposited[_from],\n            ERROR_STAKING_MORE_THAN_AVAILABLE\n        );\n\n        uint256 previousStake = proposal.stakedTokens;\n        proposal.stakedTokens = proposal.stakedTokens.add(_amount);\n        proposal.voterStake[_from] = proposal.voterStake[_from].add(_amount);\n        totalVoterStake[_from] = totalVoterStake[_from].add(_amount);\n        totalStaked = totalStaked.add(_amount);\n\n        if (proposal.blockLast == 0) {\n            proposal.blockLast = getBlockNumber64();\n        } else {\n            _calculateAndSetConviction(proposal, previousStake);\n        }\n\n        _updateVoterStakedProposals(_proposalId, _from);\n\n        emit StakeAdded(\n            _from,\n            _proposalId,\n            _amount,\n            proposal.voterStake[_from],\n            proposal.stakedTokens,\n            proposal.convictionLast\n        );\n    }\n\n    function _updateVoterStakedProposals(\n        uint256 _proposalId,\n        address _submitter\n    ) internal {\n        uint256[] storage voterStakedProposalsArray =\n            voterStakedProposals[_submitter];\n\n        if (!voterStakedProposalsArray.contains(_proposalId)) {\n            require(\n                voterStakedProposalsArray.length < MAX_STAKED_PROPOSALS,\n                ERROR_MAX_PROPOSALS_REACHED\n            );\n            voterStakedProposalsArray.push(_proposalId);\n        }\n    }\n\n    /**\n     * @dev Withdraw staked tokens from executed proposals until a target amount is reached.\n     * @param _targetAmount Target at which to stop withdrawing tokens\n     * @param _from Account to withdraw from\n     */\n    function _withdrawInactiveStakedTokens(uint256 _targetAmount, address _from)\n        internal\n    {\n        uint256 i = 0;\n        uint256 toWithdraw;\n        uint256 withdrawnAmount = 0;\n        uint256[] memory voterStakedProposalsCopy = voterStakedProposals[_from];\n\n        while (\n            i < voterStakedProposalsCopy.length &&\n            withdrawnAmount < _targetAmount\n        ) {\n            uint256 proposalId = voterStakedProposalsCopy[i];\n            Proposal storage proposal = proposals[proposalId];\n\n            // Withdraw only form Cancelled proposals\n            if ((proposal.proposalStatus == ProposalStatus.Cancelled)) {\n                toWithdraw = proposal.voterStake[_from];\n                if (toWithdraw > 0) {\n                    _withdrawStakedFromProposal(proposalId, toWithdraw, _from);\n                    withdrawnAmount = withdrawnAmount.add(toWithdraw);\n                }\n            }\n            i++;\n        }\n    }\n\n    /**\n     * @dev Withdraw staked tokens from active proposals until a target amount is reached.\n     * @param _targetAmount Target at which to stop withdrawing tokens\n     * @param _from Account to withdraw from\n     */\n    function _withdrawActiveStakedTokens(uint256 _targetAmount, address _from)\n        internal\n    {\n        uint256 i = 0;\n        uint256 toWithdraw;\n        uint256 withdrawnAmount = 0;\n        uint256[] memory voterStakedProposalsCopy = voterStakedProposals[_from];\n\n        // We reset this variable as _withdrawStakedFromProposal can update voterStakedProposals\n        voterStakedProposalsCopy = voterStakedProposals[_from];\n\n        while (\n            i < voterStakedProposalsCopy.length &&\n            withdrawnAmount < _targetAmount\n        ) {\n            uint256 proposalId = voterStakedProposalsCopy[i];\n            Proposal storage proposal = proposals[proposalId];\n\n            // In active proposals, we only subtract the needed amount to reach the target\n            toWithdraw = MathHelpers.min256(\n                _targetAmount.sub(withdrawnAmount),\n                proposal.voterStake[_from]\n            );\n            if (toWithdraw > 0) {\n                _withdrawStakedFromProposal(proposalId, toWithdraw, _from);\n                withdrawnAmount = withdrawnAmount.add(toWithdraw);\n            }\n            i++;\n        }\n    }\n\n    /**\n     * @dev Withdraw an amount of tokens from a proposal\n     * @param _proposalId Proposal id\n     * @param _amount Amount of withdrawn tokens\n     * @param _from Account to withdraw from\n     */\n    function _withdrawStakedFromProposal(\n        uint256 _proposalId,\n        uint256 _amount,\n        address _from\n    ) internal {\n        Proposal storage proposal = proposals[_proposalId];\n        require(proposal.proposalStatus != ProposalStatus.Executed, ERROR_CAN_NOT_WHITHDRAW_WHILE_PROJECT_EXECUTED);\n        require(\n            proposal.voterStake[_from] >= _amount,\n            ERROR_WITHDRAW_MORE_THAN_STAKED\n        );\n        require(_amount > 0, ERROR_AMOUNT_CAN_NOT_BE_ZERO);\n\n        uint256 previousStake = proposal.stakedTokens;\n        proposal.stakedTokens = proposal.stakedTokens.sub(_amount);\n        proposal.voterStake[_from] = proposal.voterStake[_from].sub(_amount);\n        totalVoterStake[_from] = totalVoterStake[_from].sub(_amount);\n        totalStaked = totalStaked.sub(_amount);\n\n        if (proposal.voterStake[_from] == 0) {\n            voterStakedProposals[_from].deleteItem(_proposalId);\n        }\n\n        if (proposal.proposalStatus == ProposalStatus.Active) {\n            _calculateAndSetConviction(proposal, previousStake);\n        }\n\n        emit StakeWithdrawn(\n            _from,\n            _proposalId,\n            _amount,\n            proposal.voterStake[_from],\n            proposal.stakedTokens,\n            proposal.convictionLast\n        );\n    }\n}\n",
  "sourcePath": "/Users/merlinegalite/Desktop/Code/Projects/TheCoolProject/the-cool-project-contracts/contracts/ConvictionVotingCreditDelegation.sol",
  "compiler": {
    "name": "solc",
    "version": "0.6.12+commit.27d51765.Emscripten.clang"
  },
  "schemaVersion": "3.2.4",
  "updatedAt": "2021-02-03T10:58:46.492Z",
  "devdoc": {
    "kind": "dev",
    "methods": {
      "addProposal(string,bytes,uint256,address)": {
        "params": {
          "_beneficiary": "Address that will receive payment",
          "_link": "IPFS or HTTP link with proposal's description",
          "_requestedAmount": "Tokens requested",
          "_title": "Title of the proposal"
        }
      },
      "borrowCredit(uint256,uint256)": {
        "params": {
          "_amount": "The amount the borrower is allowed to borrow (i.e. their line of credit)",
          "_proposalId": "Id of the proposal"
        }
      },
      "calculateConviction(uint64,uint256,uint256)": {
        "details": "Conviction formula: a^t * y(0) + x * (1 - a^t) / (1 - a) Solidity implementation: y = (2^128 * a^t * y0 + x * D * (2^128 - 2^128 * a^t) / (D - aD) + 2^127) / 2^128",
        "params": {
          "_lastConv": "Last conviction record",
          "_oldAmount": "Amount of tokens staked until now",
          "_timePassed": "Number of blocks since last conviction record"
        },
        "returns": {
          "_0": "Current conviction"
        }
      },
      "calculateThreshold(uint256)": {
        "details": "Formula:  * totalStaked / (1 - a) / ( - requestedAmount / total)**2 For the Solidity implementation we amplify  and  and simplify the formula: weight =  * D maxRatio =  * D decay = a * D threshold = weight * totalStaked * D ** 2 * funds ** 2 / (D - decay) / (maxRatio * funds - requestedAmount * D) ** 2",
        "params": {
          "_requestedAmount": "Requested amount of tokens on certain proposal"
        },
        "returns": {
          "_threshold": "Threshold a proposal's conviction should surpass in order to be able to executed it."
        }
      },
      "cancelProposal(uint256)": {
        "params": {
          "_proposalId": "Proposal id"
        }
      },
      "checkAllowance(address,address,address)": {
        "params": {
          "_asset": "The asset they are allowed to borrow",
          "_delegatee": "The delegatee of the funds",
          "_delegator": "The delegator of the funds"
        }
      },
      "depositCollateral(uint256,bool)": {
        "params": {
          "_amount": "The amount to be deposited as collateral",
          "_isPull": "Whether to pull the funds from the caller, or use funds sent to this contract  User must have approved this contract to pull funds if `isPull` = true"
        }
      },
      "executeProposal(uint256)": {
        "details": "...by sending `@tokenAmount((self.requestToken(): address), self.getPropoal(_proposalId): ([uint256], address, uint256, uint256, uint64, bool))` to `self.getPropoal(_proposalId): (uint256, [address], uint256, uint256, uint64, bool)`",
        "params": {
          "_proposalId": "Proposal id"
        }
      },
      "getProposal(uint256)": {
        "details": "Get proposal details",
        "params": {
          "_proposalId": "Proposal id"
        },
        "returns": {
          "beneficiary": "Beneficiary address",
          "blockLast": "Block when calculateAndSetConviction was called",
          "convictionLast": "Conviction this proposal had last time calculateAndSetConviction was called",
          "proposalStatus": "ProposalStatus defining the state of the proposal",
          "requestedAmount": "Requested amount",
          "stakedTokens": "Current total stake of tokens on this proposal",
          "submitter": "Submitter of the proposal"
        }
      },
      "getProposalVoterStake(uint256,address)": {
        "params": {
          "_proposalId": "Proposal id",
          "_voter": "Voter address"
        },
        "returns": {
          "_0": "Proposal voter stake"
        }
      },
      "getTotalVoterStake(address)": {
        "params": {
          "_voter": "Voter address"
        },
        "returns": {
          "_0": "Total voter stake"
        }
      },
      "getVoterStakedProposals(address)": {
        "params": {
          "_voter": "Voter address"
        },
        "returns": {
          "_0": "Voter proposals"
        }
      },
      "repayLoan(uint256,uint256)": {
        "params": {
          "_amount": "The amount to repay User calling this function must have approved this contract with an allowance to transfer the tokens You should keep internal accounting of borrowers, if your contract will have multiple borrowers",
          "_proposalId": "Id of the proposal"
        }
      },
      "setConvictionCalculationSettings(uint256,uint256,uint256,uint256)": {
        "params": {
          "_decay": "The rate at which conviction is accrued or lost from a proposal",
          "_maxRatio": "Proposal threshold parameter",
          "_minThresholdStakePercentage": "The minimum percent of stake token max supply that is used for calculating conviction",
          "_weight": "Proposal threshold parameter"
        }
      },
      "stakeAllToProposal(uint256)": {
        "params": {
          "_proposalId": "Proposal id"
        }
      },
      "stakeToProposal(uint256,uint256)": {
        "params": {
          "_amount": "Amount of tokens staked",
          "_proposalId": "Proposal id"
        }
      },
      "withdrawAllCollateral(address)": {
        "params": {
          "_asset": "The underlying asset to withdraw Add permissions to this call, e.g. only the owner should be able to withdraw the collateral!"
        }
      },
      "withdrawAllStakedFromProposal(uint256)": {
        "params": {
          "_proposalId": "Proposal id"
        }
      },
      "withdrawCollateralFromProposal(uint256,address)": {
        "params": {
          "_asset": "The underlying asset to withdraw Add permissions to this call, e.g. only the owner should be able to withdraw the collateral!"
        }
      },
      "withdrawStakedFromProposal(uint256,uint256)": {
        "params": {
          "_amount": "Amount of tokens withdrawn",
          "_proposalId": "Proposal id"
        }
      }
    },
    "title": "Conviction Voting for Credit Delegation contract",
    "version": 1
  },
  "userdoc": {
    "kind": "user",
    "methods": {
      "addProposal(string,bytes,uint256,address)": {
        "notice": "Add proposal `_title` for  `@tokenAmount((self.requestToken(): address), _requestedAmount)` to `_beneficiary`"
      },
      "borrowCredit(uint256,uint256)": {
        "notice": "Borrows part of the uncollaterised loan"
      },
      "cancelProposal(uint256)": {
        "notice": "Cancel proposal #`_proposalId`"
      },
      "checkAllowance(address,address,address)": {
        "notice": "Checks allowance for loan"
      },
      "depositCollateral(uint256,bool)": {
        "notice": "Deposits collateral into Aave to enable credit delegation This would be called by the delegator."
      },
      "executeProposal(uint256)": {
        "notice": "Execute proposal #`_proposalId`"
      },
      "getProposalVoterStake(uint256,address)": {
        "notice": "Get stake of voter `_voter` on proposal #`_proposalId`"
      },
      "getTotalVoterStake(address)": {
        "notice": "Get the total stake of voter `_voter` on all proposals"
      },
      "getVoterStakedProposals(address)": {
        "notice": "Get all proposal ID's voter `_voter` has currently staked to"
      },
      "repayLoan(uint256,uint256)": {
        "notice": "Repay an uncollaterised loan"
      },
      "setConvictionCalculationSettings(uint256,uint256,uint256,uint256)": {
        "notice": "Update the conviction voting parameters"
      },
      "stakeAllToProposal(uint256)": {
        "notice": "Stake all my `(self.stakeToken(): address).symbol(): string` tokens on proposal #`_proposalId`"
      },
      "stakeToProposal(uint256,uint256)": {
        "notice": "Stake `@tokenAmount((self.stakeToken(): address), _amount)` on proposal #`_proposalId`"
      },
      "withdrawAllCollateral(address)": {
        "notice": "Withdraw all of a collateral of the underlying asset, if no outstanding loans delegated"
      },
      "withdrawAllStakedFromProposal(uint256)": {
        "notice": "Withdraw all `(self.stakeToken(): address).symbol(): string` tokens previously staked on proposal #`_proposalId`"
      },
      "withdrawCollateralFromProposal(uint256,address)": {
        "notice": "Withdraw all of a collateral of the underlying asset, if no outstanding loans delegated"
      },
      "withdrawStakedFromProposal(uint256,uint256)": {
        "notice": "Withdraw `@tokenAmount((self.stakeToken(): address), _amount)` previously staked on proposal #`_proposalId`"
      }
    },
    "version": 1
  }
}