{
  "contractName": "GovernanceCreditDelegation",
  "abi": [
    {
      "inputs": [],
      "stateMutability": "nonpayable",
      "type": "constructor"
    },
    {
      "inputs": [
        {
          "internalType": "bytes32",
          "name": "projectName",
          "type": "bytes32"
        },
        {
          "internalType": "address",
          "name": "projectAddress",
          "type": "address"
        },
        {
          "internalType": "uint256",
          "name": "amountNeeded",
          "type": "uint256"
        }
      ],
      "name": "addProjectProposal",
      "outputs": [],
      "stateMutability": "nonpayable",
      "type": "function"
    },
    {
      "inputs": [
        {
          "internalType": "address",
          "name": "",
          "type": "address"
        }
      ],
      "name": "amountsDeposited",
      "outputs": [
        {
          "internalType": "uint256",
          "name": "",
          "type": "uint256"
        }
      ],
      "stateMutability": "view",
      "type": "function",
      "constant": true
    },
    {
      "inputs": [
        {
          "internalType": "address",
          "name": "",
          "type": "address"
        }
      ],
      "name": "borrowed",
      "outputs": [
        {
          "internalType": "uint256",
          "name": "",
          "type": "uint256"
        }
      ],
      "stateMutability": "view",
      "type": "function",
      "constant": true
    },
    {
      "inputs": [
        {
          "internalType": "address",
          "name": "projectAddress",
          "type": "address"
        }
      ],
      "name": "canBorrow",
      "outputs": [
        {
          "internalType": "bool",
          "name": "",
          "type": "bool"
        }
      ],
      "stateMutability": "view",
      "type": "function",
      "constant": true
    },
    {
      "inputs": [
        {
          "internalType": "address",
          "name": "projectAddress",
          "type": "address"
        }
      ],
      "name": "getProjectAllowance",
      "outputs": [
        {
          "internalType": "uint256",
          "name": "",
          "type": "uint256"
        }
      ],
      "stateMutability": "view",
      "type": "function",
      "constant": true
    },
    {
      "inputs": [
        {
          "internalType": "address",
          "name": "sender",
          "type": "address"
        }
      ],
      "name": "hasRightToVote",
      "outputs": [
        {
          "internalType": "bool",
          "name": "",
          "type": "bool"
        }
      ],
      "stateMutability": "nonpayable",
      "type": "function"
    },
    {
      "inputs": [
        {
          "internalType": "uint256",
          "name": "",
          "type": "uint256"
        }
      ],
      "name": "projectAddresses",
      "outputs": [
        {
          "internalType": "address",
          "name": "",
          "type": "address"
        }
      ],
      "stateMutability": "view",
      "type": "function",
      "constant": true
    },
    {
      "inputs": [
        {
          "internalType": "address",
          "name": "",
          "type": "address"
        }
      ],
      "name": "projects",
      "outputs": [
        {
          "internalType": "bytes32",
          "name": "projectName",
          "type": "bytes32"
        },
        {
          "internalType": "uint256",
          "name": "amountNeeded",
          "type": "uint256"
        },
        {
          "internalType": "uint256",
          "name": "voteCount",
          "type": "uint256"
        }
      ],
      "stateMutability": "view",
      "type": "function",
      "constant": true
    },
    {
      "inputs": [
        {
          "internalType": "address",
          "name": "projectAddress",
          "type": "address"
        },
        {
          "internalType": "uint256",
          "name": "amountNeeded",
          "type": "uint256"
        }
      ],
      "name": "updateProjectProposal",
      "outputs": [],
      "stateMutability": "nonpayable",
      "type": "function"
    },
    {
      "inputs": [
        {
          "internalType": "address",
          "name": "projectAddress",
          "type": "address"
        }
      ],
      "name": "vote",
      "outputs": [],
      "stateMutability": "nonpayable",
      "type": "function"
    },
    {
      "inputs": [
        {
          "internalType": "address",
          "name": "",
          "type": "address"
        }
      ],
      "name": "voters",
      "outputs": [
        {
          "internalType": "uint256",
          "name": "weight",
          "type": "uint256"
        },
        {
          "internalType": "address",
          "name": "delegate",
          "type": "address"
        }
      ],
      "stateMutability": "view",
      "type": "function",
      "constant": true
    },
    {
      "inputs": [
        {
          "internalType": "address",
          "name": "asset",
          "type": "address"
        },
        {
          "internalType": "uint256",
          "name": "amount",
          "type": "uint256"
        },
        {
          "internalType": "bool",
          "name": "isPull",
          "type": "bool"
        }
      ],
      "name": "depositCollateral",
      "outputs": [],
      "stateMutability": "nonpayable",
      "type": "function"
    },
    {
      "inputs": [
        {
          "internalType": "address",
          "name": "borrower",
          "type": "address"
        },
        {
          "internalType": "address",
          "name": "asset",
          "type": "address"
        }
      ],
      "name": "approveBorrower",
      "outputs": [],
      "stateMutability": "nonpayable",
      "type": "function"
    },
    {
      "inputs": [
        {
          "internalType": "uint256",
          "name": "amount",
          "type": "uint256"
        },
        {
          "internalType": "address",
          "name": "asset",
          "type": "address"
        }
      ],
      "name": "borrowCredit",
      "outputs": [],
      "stateMutability": "nonpayable",
      "type": "function"
    },
    {
      "inputs": [
        {
          "internalType": "address",
          "name": "borrower",
          "type": "address"
        },
        {
          "internalType": "address",
          "name": "asset",
          "type": "address"
        }
      ],
      "name": "checkAllowance",
      "outputs": [
        {
          "internalType": "uint256",
          "name": "",
          "type": "uint256"
        }
      ],
      "stateMutability": "view",
      "type": "function",
      "constant": true
    },
    {
      "inputs": [
        {
          "internalType": "uint256",
          "name": "amount",
          "type": "uint256"
        },
        {
          "internalType": "address",
          "name": "asset",
          "type": "address"
        }
      ],
      "name": "repayBorrower",
      "outputs": [],
      "stateMutability": "nonpayable",
      "type": "function"
    },
    {
      "inputs": [
        {
          "internalType": "address",
          "name": "asset",
          "type": "address"
        }
      ],
      "name": "withdrawCollateral",
      "outputs": [],
      "stateMutability": "nonpayable",
      "type": "function"
    }
  ],
  "bytecode": "0x608060405234801561001057600080fd5b5073652b2937efd0b5bea1c8d54293fc1289672afc6b600660006101000a81548173ffffffffffffffffffffffffffffffffffffffff021916908373ffffffffffffffffffffffffffffffffffffffff160217905550600660009054906101000a900473ffffffffffffffffffffffffffffffffffffffff1673ffffffffffffffffffffffffffffffffffffffff16630261bf8b6040518163ffffffff1660e01b815260040160206040518083038186803b1580156100ce57600080fd5b505afa1580156100e2573d6000803e3d6000fd5b505050506040513d60208110156100f857600080fd5b8101908080519060200190929190505050600760006101000a81548173ffffffffffffffffffffffffffffffffffffffff021916908373ffffffffffffffffffffffffffffffffffffffff16021790555033600860006101000a81548173ffffffffffffffffffffffffffffffffffffffff021916908373ffffffffffffffffffffffffffffffffffffffff16021790555061241e806101996000396000f3fe608060405234801561001057600080fd5b506004361061010b5760003560e01c8063840e78fd116100a2578063a3ec138d11610071578063a3ec138d1461051c578063c1d2771314610591578063cc13fd3b146105e9578063e5feb78114610641578063ec233fbb1461069b5761010b565b8063840e78fd146103ac5780638b099b2314610412578063928d300e1461048a578063939ed858146104ce5761010b565b806311243495116100de57806311243495146102685780631a36175b146102c057806365c937691461030e5780636dd7d8ea146103685761010b565b806308318e15146101105780630941cb3d146101685780630e7fc864146101c0578063102680e31461021a575b600080fd5b6101666004803603606081101561012657600080fd5b8101908080359060200190929190803573ffffffffffffffffffffffffffffffffffffffff169060200190929190803590602001909291905050506106ff565b005b6101aa6004803603602081101561017e57600080fd5b81019080803573ffffffffffffffffffffffffffffffffffffffff169060200190929190505050610867565b6040518082815260200191505060405180910390f35b610202600480360360208110156101d657600080fd5b81019080803573ffffffffffffffffffffffffffffffffffffffff16906020019092919050505061087f565b60405180821515815260200191505060405180910390f35b6102666004803603604081101561023057600080fd5b8101908080359060200190929190803573ffffffffffffffffffffffffffffffffffffffff1690602001909291905050506108ce565b005b6102aa6004803603602081101561027e57600080fd5b81019080803573ffffffffffffffffffffffffffffffffffffffff169060200190929190505050610ad7565b6040518082815260200191505060405180910390f35b61030c600480360360408110156102d657600080fd5b81019080803573ffffffffffffffffffffffffffffffffffffffff16906020019092919080359060200190929190505050610aef565b005b6103506004803603602081101561032457600080fd5b81019080803573ffffffffffffffffffffffffffffffffffffffff169060200190929190505050610bce565b60405180821515815260200191505060405180910390f35b6103aa6004803603602081101561037e57600080fd5b81019080803573ffffffffffffffffffffffffffffffffffffffff169060200190929190505050610cdd565b005b6103ee600480360360208110156103c257600080fd5b81019080803573ffffffffffffffffffffffffffffffffffffffff169060200190929190505050610f15565b60405180848152602001838152602001828152602001935050505060405180910390f35b6104746004803603604081101561042857600080fd5b81019080803573ffffffffffffffffffffffffffffffffffffffff169060200190929190803573ffffffffffffffffffffffffffffffffffffffff169060200190929190505050610f3f565b6040518082815260200191505060405180910390f35b6104cc600480360360208110156104a057600080fd5b81019080803573ffffffffffffffffffffffffffffffffffffffff1690602001909291905050506110d9565b005b61051a600480360360408110156104e457600080fd5b8101908080359060200190929190803573ffffffffffffffffffffffffffffffffffffffff169060200190929190505050611413565b005b61055e6004803603602081101561053257600080fd5b81019080803573ffffffffffffffffffffffffffffffffffffffff169060200190929190505050611587565b604051808381526020018273ffffffffffffffffffffffffffffffffffffffff1681526020019250505060405180910390f35b6105d3600480360360208110156105a757600080fd5b81019080803573ffffffffffffffffffffffffffffffffffffffff1690602001909291905050506115cb565b6040518082815260200191505060405180910390f35b610615600480360360208110156105ff57600080fd5b8101908080359060200190929190505050611635565b604051808273ffffffffffffffffffffffffffffffffffffffff16815260200191505060405180910390f35b6106996004803603606081101561065757600080fd5b81019080803573ffffffffffffffffffffffffffffffffffffffff16906020019092919080359060200190929190803515159060200190929190505050611671565b005b6106fd600480360360408110156106b157600080fd5b81019080803573ffffffffffffffffffffffffffffffffffffffff169060200190929190803573ffffffffffffffffffffffffffffffffffffffff169060200190929190505050611879565b005b8173ffffffffffffffffffffffffffffffffffffffff163373ffffffffffffffffffffffffffffffffffffffff1614610783576040517f08c379a000000000000000000000000000000000000000000000000000000000815260040180806020018281038252603e81526020018061234b603e913960400191505060405180910390fd5b60405180606001604052808481526020018281526020016000815250600260008473ffffffffffffffffffffffffffffffffffffffff1673ffffffffffffffffffffffffffffffffffffffff1681526020019081526020016000206000820151816000015560208201518160010155604082015181600201559050506005829080600181540180825580915050600190039060005260206000200160009091909190916101000a81548173ffffffffffffffffffffffffffffffffffffffff021916908373ffffffffffffffffffffffffffffffffffffffff160217905550505050565b60036020528060005260406000206000915090505481565b60006043600260008473ffffffffffffffffffffffffffffffffffffffff1673ffffffffffffffffffffffffffffffffffffffff16815260200190815260200160002060020154119050919050565b6108fb3330848473ffffffffffffffffffffffffffffffffffffffff16611a5b909392919063ffffffff16565b610948600760009054906101000a900473ffffffffffffffffffffffffffffffffffffffff16838373ffffffffffffffffffffffffffffffffffffffff16611b1c9092919063ffffffff16565b600760009054906101000a900473ffffffffffffffffffffffffffffffffffffffff1673ffffffffffffffffffffffffffffffffffffffff1663573ade8182846001306040518563ffffffff1660e01b8152600401808573ffffffffffffffffffffffffffffffffffffffff1681526020018481526020018381526020018273ffffffffffffffffffffffffffffffffffffffff168152602001945050505050602060405180830381600087803b158015610a0257600080fd5b505af1158015610a16573d6000803e3d6000fd5b505050506040513d6020811015610a2c57600080fd5b810190808051906020019092919050505050610a9082600360003373ffffffffffffffffffffffffffffffffffffffff1673ffffffffffffffffffffffffffffffffffffffff16815260200190815260200160002054611ce190919063ffffffff16565b600360003373ffffffffffffffffffffffffffffffffffffffff1673ffffffffffffffffffffffffffffffffffffffff168152602001908152602001600020819055505050565b60046020528060005260406000206000915090505481565b8173ffffffffffffffffffffffffffffffffffffffff163373ffffffffffffffffffffffffffffffffffffffff1614610b73576040517f08c379a000000000000000000000000000000000000000000000000000000000815260040180806020018281038252603e81526020018061234b603e913960400191505060405180910390fd5b6000600260008473ffffffffffffffffffffffffffffffffffffffff1673ffffffffffffffffffffffffffffffffffffffff168152602001908152602001600020905081816001018190555060008160020181905550505050565b600080600160008473ffffffffffffffffffffffffffffffffffffffff1673ffffffffffffffffffffffffffffffffffffffff1681526020019081526020016000209050610c79600054610c6b6064600460008873ffffffffffffffffffffffffffffffffffffffff1673ffffffffffffffffffffffffffffffffffffffff16815260200190815260200160002054611d2b90919063ffffffff16565b611db190919063ffffffff16565b81600001819055506000600460008573ffffffffffffffffffffffffffffffffffffffff1673ffffffffffffffffffffffffffffffffffffffff16815260200190815260200160002054118015610cd557506000816000015414155b915050919050565b610ce633610bce565b610d58576040517f08c379a00000000000000000000000000000000000000000000000000000000081526004018080602001828103825260148152602001807f486173206e6f20726967687420746f20766f746500000000000000000000000081525060200191505060405180910390fd5b6000600160003373ffffffffffffffffffffffffffffffffffffffff1673ffffffffffffffffffffffffffffffffffffffff16815260200190815260200160002090508060010160008373ffffffffffffffffffffffffffffffffffffffff1673ffffffffffffffffffffffffffffffffffffffff16815260200190815260200160002060009054906101000a900460ff1615610e5d576040517f08c379a000000000000000000000000000000000000000000000000000000000815260040180806020018281038252600e8152602001807f416c726561647920766f7465642e00000000000000000000000000000000000081525060200191505060405180910390fd5b60018160010160008473ffffffffffffffffffffffffffffffffffffffff1673ffffffffffffffffffffffffffffffffffffffff16815260200190815260200160002060006101000a81548160ff0219169083151502179055506000600260008473ffffffffffffffffffffffffffffffffffffffff1673ffffffffffffffffffffffffffffffffffffffff168152602001908152602001600020905081600001548160020160008282540192505081905550505050565b60026020528060005260406000206000915090508060000154908060010154908060020154905083565b60008073744c1aaa95232eef8a9994c4e0b3a89659d9ab7973ffffffffffffffffffffffffffffffffffffffff1663d2493b6c846040518263ffffffff1660e01b8152600401808273ffffffffffffffffffffffffffffffffffffffff16815260200191505060606040518083038186803b158015610fbd57600080fd5b505afa158015610fd1573d6000803e3d6000fd5b505050506040513d6060811015610fe757600080fd5b81019080805190602001909291908051906020019092919080519060200190929190505050509150508073ffffffffffffffffffffffffffffffffffffffff16636bd76d2430866040518363ffffffff1660e01b8152600401808373ffffffffffffffffffffffffffffffffffffffff1681526020018273ffffffffffffffffffffffffffffffffffffffff1681526020019250505060206040518083038186803b15801561109557600080fd5b505afa1580156110a9573d6000803e3d6000fd5b505050506040513d60208110156110bf57600080fd5b810190808051906020019092919050505091505092915050565b600073744c1aaa95232eef8a9994c4e0b3a89659d9ab7973ffffffffffffffffffffffffffffffffffffffff1663d2493b6c836040518263ffffffff1660e01b8152600401808273ffffffffffffffffffffffffffffffffffffffff16815260200191505060606040518083038186803b15801561115657600080fd5b505afa15801561116a573d6000803e3d6000fd5b505050506040513d606081101561118057600080fd5b810190808051906020019092919080519060200190929190805190602001909291905050505050905060008173ffffffffffffffffffffffffffffffffffffffff166370a08231306040518263ffffffff1660e01b8152600401808273ffffffffffffffffffffffffffffffffffffffff16815260200191505060206040518083038186803b15801561121257600080fd5b505afa158015611226573d6000803e3d6000fd5b505050506040513d602081101561123c57600080fd5b81019080805190602001909291905050509050600760009054906101000a900473ffffffffffffffffffffffffffffffffffffffff1673ffffffffffffffffffffffffffffffffffffffff166369328dec8483600860009054906101000a900473ffffffffffffffffffffffffffffffffffffffff166040518463ffffffff1660e01b8152600401808473ffffffffffffffffffffffffffffffffffffffff1681526020018381526020018273ffffffffffffffffffffffffffffffffffffffff1681526020019350505050602060405180830381600087803b15801561132257600080fd5b505af1158015611336573d6000803e3d6000fd5b505050506040513d602081101561134c57600080fd5b8101908080519060200190929190505050506113b081600460003373ffffffffffffffffffffffffffffffffffffffff1673ffffffffffffffffffffffffffffffffffffffff16815260200190815260200160002054611ce190919063ffffffff16565b600460003373ffffffffffffffffffffffffffffffffffffffff1673ffffffffffffffffffffffffffffffffffffffff1681526020019081526020016000208190555061140881600054611ce190919063ffffffff16565b600081905550505050565b600760009054906101000a900473ffffffffffffffffffffffffffffffffffffffff1673ffffffffffffffffffffffffffffffffffffffff1663a415bcad828460016000306040518663ffffffff1660e01b8152600401808673ffffffffffffffffffffffffffffffffffffffff1681526020018581526020018481526020018381526020018273ffffffffffffffffffffffffffffffffffffffff16815260200195505050505050600060405180830381600087803b1580156114d657600080fd5b505af11580156114ea573d6000803e3d6000fd5b5050505061154082600360003373ffffffffffffffffffffffffffffffffffffffff1673ffffffffffffffffffffffffffffffffffffffff16815260200190815260200160002054611dfb90919063ffffffff16565b600360003373ffffffffffffffffffffffffffffffffffffffff1673ffffffffffffffffffffffffffffffffffffffff168152602001908152602001600020819055505050565b60016020528060005260406000206000915090508060000154908060020160009054906101000a900473ffffffffffffffffffffffffffffffffffffffff16905082565b60006115d68261087f565b1561162b576000600260008473ffffffffffffffffffffffffffffffffffffffff1673ffffffffffffffffffffffffffffffffffffffff16815260200190815260200160002090508060010154915050611630565b600090505b919050565b6005818154811061164257fe5b906000526020600020016000915054906101000a900473ffffffffffffffffffffffffffffffffffffffff1681565b80156116a5576116a43330848673ffffffffffffffffffffffffffffffffffffffff16611a5b909392919063ffffffff16565b5b6116f2600760009054906101000a900473ffffffffffffffffffffffffffffffffffffffff16838573ffffffffffffffffffffffffffffffffffffffff16611b1c9092919063ffffffff16565b600760009054906101000a900473ffffffffffffffffffffffffffffffffffffffff1673ffffffffffffffffffffffffffffffffffffffff1663e8eda9df84843060006040518563ffffffff1660e01b8152600401808573ffffffffffffffffffffffffffffffffffffffff1681526020018481526020018373ffffffffffffffffffffffffffffffffffffffff168152602001828152602001945050505050600060405180830381600087803b1580156117ac57600080fd5b505af11580156117c0573d6000803e3d6000fd5b5050505061181682600460003373ffffffffffffffffffffffffffffffffffffffff1673ffffffffffffffffffffffffffffffffffffffff16815260200190815260200160002054611dfb90919063ffffffff16565b600460003373ffffffffffffffffffffffffffffffffffffffff1673ffffffffffffffffffffffffffffffffffffffff1681526020019081526020016000208190555061186e82600054611dfb90919063ffffffff16565b600081905550505050565b6000611884836115cb565b9050600081116118fc576040517f08c379a000000000000000000000000000000000000000000000000000000000815260040180806020018281038252601a8152602001807f426f72726f77657220686173206e6f20616c6c6f77616e63652e00000000000081525060200191505060405180910390fd5b600073744c1aaa95232eef8a9994c4e0b3a89659d9ab7973ffffffffffffffffffffffffffffffffffffffff1663d2493b6c846040518263ffffffff1660e01b8152600401808273ffffffffffffffffffffffffffffffffffffffff16815260200191505060606040518083038186803b15801561197957600080fd5b505afa15801561198d573d6000803e3d6000fd5b505050506040513d60608110156119a357600080fd5b81019080805190602001909291908051906020019092919080519060200190929190505050509150508073ffffffffffffffffffffffffffffffffffffffff1663c04a8a1085846040518363ffffffff1660e01b8152600401808373ffffffffffffffffffffffffffffffffffffffff16815260200182815260200192505050600060405180830381600087803b158015611a3d57600080fd5b505af1158015611a51573d6000803e3d6000fd5b5050505050505050565b611b16846323b872dd60e01b858585604051602401808473ffffffffffffffffffffffffffffffffffffffff1681526020018373ffffffffffffffffffffffffffffffffffffffff1681526020018281526020019350505050604051602081830303815290604052907bffffffffffffffffffffffffffffffffffffffffffffffffffffffff19166020820180517bffffffffffffffffffffffffffffffffffffffffffffffffffffffff8381831617835250505050611e83565b50505050565b6000811480611bea575060008373ffffffffffffffffffffffffffffffffffffffff1663dd62ed3e30856040518363ffffffff1660e01b8152600401808373ffffffffffffffffffffffffffffffffffffffff1681526020018273ffffffffffffffffffffffffffffffffffffffff1681526020019250505060206040518083038186803b158015611bad57600080fd5b505afa158015611bc1573d6000803e3d6000fd5b505050506040513d6020811015611bd757600080fd5b8101908080519060200190929190505050145b611c3f576040517f08c379a00000000000000000000000000000000000000000000000000000000081526004018080602001828103825260368152602001806123b36036913960400191505060405180910390fd5b611cdc8363095ea7b360e01b8484604051602401808373ffffffffffffffffffffffffffffffffffffffff16815260200182815260200192505050604051602081830303815290604052907bffffffffffffffffffffffffffffffffffffffffffffffffffffffff19166020820180517bffffffffffffffffffffffffffffffffffffffffffffffffffffffff8381831617835250505050611e83565b505050565b6000611d2383836040518060400160405280601e81526020017f536166654d6174683a207375627472616374696f6e206f766572666c6f770000815250611f72565b905092915050565b600080831415611d3e5760009050611dab565b6000828402905082848281611d4f57fe5b0414611da6576040517f08c379a000000000000000000000000000000000000000000000000000000000815260040180806020018281038252602181526020018061232a6021913960400191505060405180910390fd5b809150505b92915050565b6000611df383836040518060400160405280601a81526020017f536166654d6174683a206469766973696f6e206279207a65726f000000000000815250612032565b905092915050565b600080828401905083811015611e79576040517f08c379a000000000000000000000000000000000000000000000000000000000815260040180806020018281038252601b8152602001807f536166654d6174683a206164646974696f6e206f766572666c6f77000000000081525060200191505060405180910390fd5b8091505092915050565b6060611ee5826040518060400160405280602081526020017f5361666545524332303a206c6f772d6c6576656c2063616c6c206661696c65648152508573ffffffffffffffffffffffffffffffffffffffff166120f89092919063ffffffff16565b9050600081511115611f6d57808060200190516020811015611f0657600080fd5b8101908080519060200190929190505050611f6c576040517f08c379a000000000000000000000000000000000000000000000000000000000815260040180806020018281038252602a815260200180612389602a913960400191505060405180910390fd5b5b505050565b600083831115829061201f576040517f08c379a00000000000000000000000000000000000000000000000000000000081526004018080602001828103825283818151815260200191508051906020019080838360005b83811015611fe4578082015181840152602081019050611fc9565b50505050905090810190601f1680156120115780820380516001836020036101000a031916815260200191505b509250505060405180910390fd5b5060008385039050809150509392505050565b600080831182906120de576040517f08c379a00000000000000000000000000000000000000000000000000000000081526004018080602001828103825283818151815260200191508051906020019080838360005b838110156120a3578082015181840152602081019050612088565b50505050905090810190601f1680156120d05780820380516001836020036101000a031916815260200191505b509250505060405180910390fd5b5060008385816120ea57fe5b049050809150509392505050565b60606121078484600085612110565b90509392505050565b606061211b85612316565b61218d576040517f08c379a000000000000000000000000000000000000000000000000000000000815260040180806020018281038252601d8152602001807f416464726573733a2063616c6c20746f206e6f6e2d636f6e747261637400000081525060200191505060405180910390fd5b600060608673ffffffffffffffffffffffffffffffffffffffff1685876040518082805190602001908083835b602083106121dd57805182526020820191506020810190506020830392506121ba565b6001836020036101000a03801982511681845116808217855250505050505090500191505060006040518083038185875af1925050503d806000811461223f576040519150601f19603f3d011682016040523d82523d6000602084013e612244565b606091505b5091509150811561225957809250505061230e565b60008151111561226c5780518082602001fd5b836040517f08c379a00000000000000000000000000000000000000000000000000000000081526004018080602001828103825283818151815260200191508051906020019080838360005b838110156122d35780820151818401526020810190506122b8565b50505050905090810190601f1680156123005780820380516001836020036101000a031916815260200191505b509250505060405180910390fd5b949350505050565b600080823b90506000811191505091905056fe536166654d6174683a206d756c7469706c69636174696f6e206f766572666c6f774f6e6c7920746865206f776e6572206f66207468652070726f6a6563742063616e2070726f706f7365207468652070726f6a65637420746f20766f74652e5361666545524332303a204552433230206f7065726174696f6e20646964206e6f7420737563636565645361666545524332303a20617070726f76652066726f6d206e6f6e2d7a65726f20746f206e6f6e2d7a65726f20616c6c6f77616e6365a264697066735822122095faa4ce618767ca99dc1c58a77f8d0b7e9abe0d0c91be6d846729c3a7e9d72b64736f6c634300060c0033",
  "immutableReferences": {},
  "source": "// SPDX-License-Identifier: agpl-3.0\npragma solidity >=0.6.12;\n\nimport { ILendingPool, IProtocolDataProvider, IStableDebtToken, ILendingPoolAddressesProvider } from \"./Interfaces.sol\";\nimport { IERC20 } from \"./token/ERC20/IERC20.sol\";\nimport { SafeERC20 } from \"./token/ERC20/SafeERC20.sol\";\nimport { Governance } from \"./Governance.sol\";\nimport { SafeMath } from \"./math/SafeMath.sol\";\n\n/**\n\t* @title GovernanceCreditDelegation contract\n\t**/\ncontract GovernanceCreditDelegation is Governance {\n\tusing SafeERC20 for IERC20;\n\tusing SafeMath for uint256;\n\n\tILendingPoolAddressesProvider provider;\n\tILendingPool lendingPool;\n\tIProtocolDataProvider constant dataProvider = IProtocolDataProvider(address(0x744C1aaA95232EeF8A9994C4E0b3a89659D9AB79));\n\n\taddress owner;\n\n\tconstructor () public {\n\t\t// Kovan\n\t\tprovider = ILendingPoolAddressesProvider(address(0x652B2937Efd0B5beA1c8d54293FC1289672AFC6b));\n\t\tlendingPool = ILendingPool(provider.getLendingPool());\n\t\towner = msg.sender;\n\t}\n\n\t/**\n\t\t* Deposits collateral into Aave, to enable credit delegation\n\t\t* This would be called by the delegator.\n\t\t* @param asset The asset to be deposited as collateral\n\t\t* @param amount The amount to be deposited as collateral\n\t\t* @param isPull Whether to pull the funds from the caller, or use funds sent to this contract\n\t\t*  User must have approved this contract to pull funds if `isPull` = true\n\t\t*\n\t\t**/\n\tfunction depositCollateral(address asset, uint256 amount, bool isPull) public {\n\t\tif (isPull) {\n\t\t\tIERC20(asset).safeTransferFrom(msg.sender, address(this), amount);\n\t\t}\n\t\tIERC20(asset).safeApprove(address(lendingPool), amount);\n\t\tlendingPool.deposit(asset, amount, address(this), 0);\n\t\tamountsDeposited[msg.sender] = amountsDeposited[msg.sender].add(amount);\n\t\ttotalAmountDeposited = totalAmountDeposited.add(amount);\n\t}\n\n\t/**\n\t\t* Approves the borrower to take an uncollaterised loan\n\t\t* @param borrower The borrower of the funds (i.e. delgatee)\n\t\t* @param asset The asset they are allowed to borrow\n\t\t*\n\t\t* Add permissions to this call, e.g. only the owner should be able to approve borrowers!\n\t\t**/\n\tfunction approveBorrower(address borrower, address asset) public {\n\t\tuint allowance = getProjectAllowance(borrower);\n\t\trequire(allowance > 0, \"Borrower has no allowance.\");\n\t\t(, address stableDebtTokenAddress,) = dataProvider.getReserveTokensAddresses(asset);\n\t\tIStableDebtToken(stableDebtTokenAddress).approveDelegation(borrower, allowance);\n\t}\n\n\t/**\n\t\t* Borrows the uncollaterised loan\n\t\t* @param amount The amount the borrower is allowed to borrow\n\t\t* @param asset The asset they are allowed to borrow\n\t\t**/\n\tfunction borrowCredit(uint256 amount, address asset) public {\n\t\tlendingPool.borrow(asset, amount, 1, 0, address(this));\n\t\tborrowed[msg.sender] = borrowed[msg.sender].add(amount);\n\t}\n\n\t/**\n\t\t* Checks allowance for loan\n\t\t* @param borrower The borrower of the funds\n\t\t* @param asset The asset they are allowed to borrow\n\t\t**/\n\tfunction checkAllowance(address borrower, address asset) public view returns(uint256) {\n\t\t(, address stableDebtTokenAddress,) = dataProvider.getReserveTokensAddresses(asset);\n\t\treturn IStableDebtToken(stableDebtTokenAddress).borrowAllowance(address(this), borrower);\n\t}\n\n\t/**\n\t\t* Repay an uncollaterised loan\n\t\t* @param amount The amount to repay\n\t\t* @param asset The asset to be repaid\n\t\t*\n\t\t* User calling this function must have approved this contract with an allowance to transfer the tokens\n\t\t*\n\t\t* You should keep internal accounting of borrowers, if your contract will have multiple borrowers\n\t\t**/\n\tfunction repayBorrower(uint256 amount, address asset) public {\n\t\tIERC20(asset).safeTransferFrom(msg.sender, address(this), amount);\n\t\tIERC20(asset).safeApprove(address(lendingPool), amount);\n\t\tlendingPool.repay(asset, amount, 1, address(this));\n\t\tborrowed[msg.sender] = borrowed[msg.sender].sub(amount);\n\t}\n\n\t/**\n\t\t* Withdraw all of a collateral as the underlying asset, if no outstanding loans delegated\n\t\t* @param asset The underlying asset to withdraw\n\t\t*\n\t\t* Add permissions to this call, e.g. only the owner should be able to withdraw the collateral!\n\t\t**/\n\tfunction withdrawCollateral(address asset) public {\n\t\t(address aTokenAddress,,) = dataProvider.getReserveTokensAddresses(asset);\n\t\tuint256 assetBalance = IERC20(aTokenAddress).balanceOf(address(this));\n\t\tlendingPool.withdraw(asset, assetBalance, owner);\n\t\t// This only works if there is only one asset used: DAI in our case\n\t\tamountsDeposited[msg.sender] = amountsDeposited[msg.sender].sub(assetBalance);\n\t\ttotalAmountDeposited = totalAmountDeposited.sub(assetBalance);\n\t}\n}",
  "sourcePath": "/Users/merlinegalite/Desktop/Code/Projects/TheCoolProject/the-cool-project-contracts/contracts/GovernanceCreditDelegation.sol",
  "compiler": {
    "name": "solc",
    "version": "0.6.12+commit.27d51765.Emscripten.clang"
  },
  "schemaVersion": "3.2.4",
  "updatedAt": "2021-01-25T14:25:26.356Z",
  "networkType": "ethereum",
  "devdoc": {
    "kind": "dev",
    "methods": {
      "addProjectProposal(bytes32,address,uint256)": {
        "details": "Adds a project proposal to the vote",
        "params": {
          "amountNeeded": "Amount needed for the project  Maybe add a way to allow some projects to propose a proposal or not*",
          "projectAddress": "The address of the project",
          "projectName": "The name of the project"
        }
      },
      "approveBorrower(address,address)": {
        "params": {
          "asset": "The asset they are allowed to borrow Add permissions to this call, e.g. only the owner should be able to approve borrowers!*",
          "borrower": "The borrower of the funds (i.e. delgatee)"
        }
      },
      "borrowCredit(uint256,address)": {
        "params": {
          "amount": "The amount the borrower is allowed to borrow",
          "asset": "The asset they are allowed to borrow*"
        }
      },
      "canBorrow(address)": {
        "details": "Checks the project is allowed to borrow an asset",
        "params": {
          "projectAddress": "The address of the project*"
        }
      },
      "checkAllowance(address,address)": {
        "params": {
          "asset": "The asset they are allowed to borrow*",
          "borrower": "The borrower of the funds"
        }
      },
      "depositCollateral(address,uint256,bool)": {
        "params": {
          "amount": "The amount to be deposited as collateral",
          "asset": "The asset to be deposited as collateral",
          "isPull": "Whether to pull the funds from the caller, or use funds sent to this contract  User must have approved this contract to pull funds if `isPull` = true*"
        }
      },
      "getProjectAllowance(address)": {
        "details": "Checks the project allowance in DAI",
        "params": {
          "projectAddress": "The address of the project*"
        }
      },
      "hasRightToVote(address)": {
        "details": "Checks whether sender can vote or not",
        "params": {
          "sender": "The address of the account to check*"
        }
      },
      "repayBorrower(uint256,address)": {
        "params": {
          "amount": "The amount to repay",
          "asset": "The asset to be repaid User calling this function must have approved this contract with an allowance to transfer the tokens You should keep internal accounting of borrowers, if your contract will have multiple borrowers*"
        }
      },
      "updateProjectProposal(address,uint256)": {
        "details": "Updates a project porposal to the vote",
        "params": {
          "amountNeeded": "Amount needed for the project  Maybe add a way to allow some projects to propose a proposal or not*",
          "projectAddress": "The address of the project"
        }
      },
      "vote(address)": {
        "details": "Votes for 'YES' a project",
        "params": {
          "projectAddress": "The address of the project to vote for*"
        }
      },
      "withdrawCollateral(address)": {
        "params": {
          "asset": "The underlying asset to withdraw Add permissions to this call, e.g. only the owner should be able to withdraw the collateral!*"
        }
      }
    },
    "title": "GovernanceCreditDelegation contract*",
    "version": 1
  },
  "userdoc": {
    "kind": "user",
    "methods": {
      "approveBorrower(address,address)": {
        "notice": "Approves the borrower to take an uncollaterised loan"
      },
      "borrowCredit(uint256,address)": {
        "notice": "Borrows the uncollaterised loan"
      },
      "checkAllowance(address,address)": {
        "notice": "Checks allowance for loan"
      },
      "depositCollateral(address,uint256,bool)": {
        "notice": "Deposits collateral into Aave, to enable credit delegation This would be called by the delegator."
      },
      "repayBorrower(uint256,address)": {
        "notice": "Repay an uncollaterised loan"
      },
      "withdrawCollateral(address)": {
        "notice": "Withdraw all of a collateral as the underlying asset, if no outstanding loans delegated"
      }
    },
    "version": 1
  }
}