{
  "contractName": "CreditDelegation",
  "abi": [
    {
      "inputs": [],
      "stateMutability": "nonpayable",
      "type": "constructor"
    },
    {
      "inputs": [
        {
          "internalType": "address",
          "name": "asset",
          "type": "address"
        },
        {
          "internalType": "uint256",
          "name": "amount",
          "type": "uint256"
        },
        {
          "internalType": "bool",
          "name": "isPull",
          "type": "bool"
        }
      ],
      "name": "depositCollateral",
      "outputs": [],
      "stateMutability": "nonpayable",
      "type": "function"
    },
    {
      "inputs": [
        {
          "internalType": "address",
          "name": "borrower",
          "type": "address"
        },
        {
          "internalType": "uint256",
          "name": "amount",
          "type": "uint256"
        },
        {
          "internalType": "address",
          "name": "asset",
          "type": "address"
        }
      ],
      "name": "approveBorrower",
      "outputs": [],
      "stateMutability": "nonpayable",
      "type": "function"
    },
    {
      "inputs": [
        {
          "internalType": "uint256",
          "name": "amount",
          "type": "uint256"
        },
        {
          "internalType": "address",
          "name": "asset",
          "type": "address"
        },
        {
          "internalType": "address",
          "name": "delegator",
          "type": "address"
        }
      ],
      "name": "borrowCredit",
      "outputs": [],
      "stateMutability": "nonpayable",
      "type": "function"
    },
    {
      "inputs": [
        {
          "internalType": "address",
          "name": "delegator",
          "type": "address"
        },
        {
          "internalType": "address",
          "name": "delegatee",
          "type": "address"
        },
        {
          "internalType": "address",
          "name": "asset",
          "type": "address"
        }
      ],
      "name": "checkAllowance",
      "outputs": [
        {
          "internalType": "uint256",
          "name": "",
          "type": "uint256"
        }
      ],
      "stateMutability": "view",
      "type": "function",
      "constant": true
    },
    {
      "inputs": [
        {
          "internalType": "uint256",
          "name": "amount",
          "type": "uint256"
        },
        {
          "internalType": "address",
          "name": "asset",
          "type": "address"
        }
      ],
      "name": "repayBorrower",
      "outputs": [],
      "stateMutability": "nonpayable",
      "type": "function"
    },
    {
      "inputs": [
        {
          "internalType": "address",
          "name": "asset",
          "type": "address"
        }
      ],
      "name": "withdrawCollateral",
      "outputs": [],
      "stateMutability": "nonpayable",
      "type": "function"
    }
  ],
  "bytecode": "0x608060405234801561001057600080fd5b5073652b2937efd0b5bea1c8d54293fc1289672afc6b6000806101000a81548173ffffffffffffffffffffffffffffffffffffffff021916908373ffffffffffffffffffffffffffffffffffffffff16021790555060008054906101000a900473ffffffffffffffffffffffffffffffffffffffff1673ffffffffffffffffffffffffffffffffffffffff16630261bf8b6040518163ffffffff1660e01b815260040160206040518083038186803b1580156100cb57600080fd5b505afa1580156100df573d6000803e3d6000fd5b505050506040513d60208110156100f557600080fd5b8101908080519060200190929190505050600160006101000a81548173ffffffffffffffffffffffffffffffffffffffff021916908373ffffffffffffffffffffffffffffffffffffffff16021790555060008054906101000a900473ffffffffffffffffffffffffffffffffffffffff1673ffffffffffffffffffffffffffffffffffffffff166321f8a7216040518163ffffffff1660e01b815260040180807f3078310000000000000000000000000000000000000000000000000000000000815250602001905060206040518083038186803b1580156101d757600080fd5b505afa1580156101eb573d6000803e3d6000fd5b505050506040513d602081101561020157600080fd5b8101908080519060200190929190505050600260006101000a81548173ffffffffffffffffffffffffffffffffffffffff021916908373ffffffffffffffffffffffffffffffffffffffff16021790555033600360006101000a81548173ffffffffffffffffffffffffffffffffffffffff021916908373ffffffffffffffffffffffffffffffffffffffff16021790555061125d806102a26000396000f3fe608060405234801561001057600080fd5b50600436106100625760003560e01c80630bdc85d514610067578063102680e3146100d55780638ca5f77214610123578063928d300e146101bb578063da49142a146101ff578063e5feb7811461026d575b600080fd5b6100d36004803603606081101561007d57600080fd5b81019080803573ffffffffffffffffffffffffffffffffffffffff16906020019092919080359060200190929190803573ffffffffffffffffffffffffffffffffffffffff1690602001909291905050506102c7565b005b610121600480360360408110156100eb57600080fd5b8101908080359060200190929190803573ffffffffffffffffffffffffffffffffffffffff169060200190929190505050610434565b005b6101a56004803603606081101561013957600080fd5b81019080803573ffffffffffffffffffffffffffffffffffffffff169060200190929190803573ffffffffffffffffffffffffffffffffffffffff169060200190929190803573ffffffffffffffffffffffffffffffffffffffff1690602001909291905050506105a8565b6040518082815260200191505060405180910390f35b6101fd600480360360208110156101d157600080fd5b81019080803573ffffffffffffffffffffffffffffffffffffffff169060200190929190505050610751565b005b61026b6004803603606081101561021557600080fd5b8101908080359060200190929190803573ffffffffffffffffffffffffffffffffffffffff169060200190929190803573ffffffffffffffffffffffffffffffffffffffff1690602001909291905050506109e9565b005b6102c56004803603606081101561028357600080fd5b81019080803573ffffffffffffffffffffffffffffffffffffffff16906020019092919080359060200190929190803515159060200190929190505050610ac9565b005b6000600260009054906101000a900473ffffffffffffffffffffffffffffffffffffffff1673ffffffffffffffffffffffffffffffffffffffff1663d2493b6c836040518263ffffffff1660e01b8152600401808273ffffffffffffffffffffffffffffffffffffffff16815260200191505060606040518083038186803b15801561035257600080fd5b505afa158015610366573d6000803e3d6000fd5b505050506040513d606081101561037c57600080fd5b81019080805190602001909291908051906020019092919080519060200190929190505050509150508073ffffffffffffffffffffffffffffffffffffffff1663c04a8a1085856040518363ffffffff1660e01b8152600401808373ffffffffffffffffffffffffffffffffffffffff16815260200182815260200192505050600060405180830381600087803b15801561041657600080fd5b505af115801561042a573d6000803e3d6000fd5b5050505050505050565b6104613330848473ffffffffffffffffffffffffffffffffffffffff16610c21909392919063ffffffff16565b6104ae600160009054906101000a900473ffffffffffffffffffffffffffffffffffffffff16838373ffffffffffffffffffffffffffffffffffffffff16610ce29092919063ffffffff16565b600160009054906101000a900473ffffffffffffffffffffffffffffffffffffffff1673ffffffffffffffffffffffffffffffffffffffff1663573ade8182846001306040518563ffffffff1660e01b8152600401808573ffffffffffffffffffffffffffffffffffffffff1681526020018481526020018381526020018273ffffffffffffffffffffffffffffffffffffffff168152602001945050505050602060405180830381600087803b15801561056857600080fd5b505af115801561057c573d6000803e3d6000fd5b505050506040513d602081101561059257600080fd5b8101908080519060200190929190505050505050565b600080600260009054906101000a900473ffffffffffffffffffffffffffffffffffffffff1673ffffffffffffffffffffffffffffffffffffffff1663d2493b6c846040518263ffffffff1660e01b8152600401808273ffffffffffffffffffffffffffffffffffffffff16815260200191505060606040518083038186803b15801561063457600080fd5b505afa158015610648573d6000803e3d6000fd5b505050506040513d606081101561065e57600080fd5b81019080805190602001909291908051906020019092919080519060200190929190505050509150508073ffffffffffffffffffffffffffffffffffffffff16636bd76d2486866040518363ffffffff1660e01b8152600401808373ffffffffffffffffffffffffffffffffffffffff1681526020018273ffffffffffffffffffffffffffffffffffffffff1681526020019250505060206040518083038186803b15801561070c57600080fd5b505afa158015610720573d6000803e3d6000fd5b505050506040513d602081101561073657600080fd5b81019080805190602001909291905050509150509392505050565b6000600260009054906101000a900473ffffffffffffffffffffffffffffffffffffffff1673ffffffffffffffffffffffffffffffffffffffff1663d2493b6c836040518263ffffffff1660e01b8152600401808273ffffffffffffffffffffffffffffffffffffffff16815260200191505060606040518083038186803b1580156107dc57600080fd5b505afa1580156107f0573d6000803e3d6000fd5b505050506040513d606081101561080657600080fd5b810190808051906020019092919080519060200190929190805190602001909291905050505050905060008173ffffffffffffffffffffffffffffffffffffffff166370a08231306040518263ffffffff1660e01b8152600401808273ffffffffffffffffffffffffffffffffffffffff16815260200191505060206040518083038186803b15801561089857600080fd5b505afa1580156108ac573d6000803e3d6000fd5b505050506040513d60208110156108c257600080fd5b81019080805190602001909291905050509050600160009054906101000a900473ffffffffffffffffffffffffffffffffffffffff1673ffffffffffffffffffffffffffffffffffffffff166369328dec8483600360009054906101000a900473ffffffffffffffffffffffffffffffffffffffff166040518463ffffffff1660e01b8152600401808473ffffffffffffffffffffffffffffffffffffffff1681526020018381526020018273ffffffffffffffffffffffffffffffffffffffff1681526020019350505050602060405180830381600087803b1580156109a857600080fd5b505af11580156109bc573d6000803e3d6000fd5b505050506040513d60208110156109d257600080fd5b810190808051906020019092919050505050505050565b600160009054906101000a900473ffffffffffffffffffffffffffffffffffffffff1673ffffffffffffffffffffffffffffffffffffffff1663a415bcad838560016000866040518663ffffffff1660e01b8152600401808673ffffffffffffffffffffffffffffffffffffffff1681526020018581526020018481526020018381526020018273ffffffffffffffffffffffffffffffffffffffff16815260200195505050505050600060405180830381600087803b158015610aac57600080fd5b505af1158015610ac0573d6000803e3d6000fd5b50505050505050565b8015610afd57610afc3330848673ffffffffffffffffffffffffffffffffffffffff16610c21909392919063ffffffff16565b5b610b4a600160009054906101000a900473ffffffffffffffffffffffffffffffffffffffff16838573ffffffffffffffffffffffffffffffffffffffff16610ce29092919063ffffffff16565b600160009054906101000a900473ffffffffffffffffffffffffffffffffffffffff1673ffffffffffffffffffffffffffffffffffffffff1663e8eda9df84843060006040518563ffffffff1660e01b8152600401808573ffffffffffffffffffffffffffffffffffffffff1681526020018481526020018373ffffffffffffffffffffffffffffffffffffffff168152602001828152602001945050505050600060405180830381600087803b158015610c0457600080fd5b505af1158015610c18573d6000803e3d6000fd5b50505050505050565b610cdc846323b872dd60e01b858585604051602401808473ffffffffffffffffffffffffffffffffffffffff1681526020018373ffffffffffffffffffffffffffffffffffffffff1681526020018281526020019350505050604051602081830303815290604052907bffffffffffffffffffffffffffffffffffffffffffffffffffffffff19166020820180517bffffffffffffffffffffffffffffffffffffffffffffffffffffffff8381831617835250505050610ea7565b50505050565b6000811480610db0575060008373ffffffffffffffffffffffffffffffffffffffff1663dd62ed3e30856040518363ffffffff1660e01b8152600401808373ffffffffffffffffffffffffffffffffffffffff1681526020018273ffffffffffffffffffffffffffffffffffffffff1681526020019250505060206040518083038186803b158015610d7357600080fd5b505afa158015610d87573d6000803e3d6000fd5b505050506040513d6020811015610d9d57600080fd5b8101908080519060200190929190505050145b610e05576040517f08c379a00000000000000000000000000000000000000000000000000000000081526004018080602001828103825260368152602001806111f26036913960400191505060405180910390fd5b610ea28363095ea7b360e01b8484604051602401808373ffffffffffffffffffffffffffffffffffffffff16815260200182815260200192505050604051602081830303815290604052907bffffffffffffffffffffffffffffffffffffffffffffffffffffffff19166020820180517bffffffffffffffffffffffffffffffffffffffffffffffffffffffff8381831617835250505050610ea7565b505050565b6060610f09826040518060400160405280602081526020017f5361666545524332303a206c6f772d6c6576656c2063616c6c206661696c65648152508573ffffffffffffffffffffffffffffffffffffffff16610f969092919063ffffffff16565b9050600081511115610f9157808060200190516020811015610f2a57600080fd5b8101908080519060200190929190505050610f90576040517f08c379a000000000000000000000000000000000000000000000000000000000815260040180806020018281038252602a8152602001806111c8602a913960400191505060405180910390fd5b5b505050565b6060610fa58484600085610fae565b90509392505050565b6060610fb9856111b4565b61102b576040517f08c379a000000000000000000000000000000000000000000000000000000000815260040180806020018281038252601d8152602001807f416464726573733a2063616c6c20746f206e6f6e2d636f6e747261637400000081525060200191505060405180910390fd5b600060608673ffffffffffffffffffffffffffffffffffffffff1685876040518082805190602001908083835b6020831061107b5780518252602082019150602081019050602083039250611058565b6001836020036101000a03801982511681845116808217855250505050505090500191505060006040518083038185875af1925050503d80600081146110dd576040519150601f19603f3d011682016040523d82523d6000602084013e6110e2565b606091505b509150915081156110f75780925050506111ac565b60008151111561110a5780518082602001fd5b836040517f08c379a00000000000000000000000000000000000000000000000000000000081526004018080602001828103825283818151815260200191508051906020019080838360005b83811015611171578082015181840152602081019050611156565b50505050905090810190601f16801561119e5780820380516001836020036101000a031916815260200191505b509250505060405180910390fd5b949350505050565b600080823b90506000811191505091905056fe5361666545524332303a204552433230206f7065726174696f6e20646964206e6f7420737563636565645361666545524332303a20617070726f76652066726f6d206e6f6e2d7a65726f20746f206e6f6e2d7a65726f20616c6c6f77616e6365a2646970667358221220745a46f79a8faf1ef544a99066efa26774416cfea809bc764908e5973542837664736f6c634300060c0033",
  "immutableReferences": {},
  "source": "// SPDX-License-Identifier: agpl-3.0\npragma solidity >=0.6.12;\n\nimport { ILendingPool, IProtocolDataProvider, IStableDebtToken, ILendingPoolAddressesProvider } from \"./Interfaces.sol\";\nimport { IERC20 } from \"./token/ERC20/IERC20.sol\";\nimport { SafeERC20 } from \"./token/ERC20/SafeERC20.sol\";\n\n/**\n * This is a proof of concept starter contract, showing how uncollaterised loans are possible\n * using Aave v2 credit delegation.\n * This example supports stable interest rate borrows.\n * It is not production ready (!). User permissions and user accounting of loans should be implemented.\n * See @dev comments\n */\n\ncontract CreditDelegation {\n\tusing SafeERC20 for IERC20;\n\n\tILendingPoolAddressesProvider provider;\n\tILendingPool lendingPool;\n\tIProtocolDataProvider dataProvider;\n\n\taddress owner;\n\n\tconstructor () public {\n\t\t// Kovan\n\t\tprovider = ILendingPoolAddressesProvider(address(0x652B2937Efd0B5beA1c8d54293FC1289672AFC6b));\n\t\tlendingPool = ILendingPool(provider.getLendingPool());\n\t\tdataProvider = IProtocolDataProvider(provider.getAddress('0x1'));\n\t\towner = msg.sender;\n\t}\n\n\t/**\n\t\t* Deposits collateral into the Aave, to enable credit delegation\n\t\t* This would be called by the delegator.\n\t\t* @param asset The asset to be deposited as collateral\n\t\t* @param amount The amount to be deposited as collateral\n\t\t* @param isPull Whether to pull the funds from the caller, or use funds sent to this contract\n\t\t*  User must have approved this contract to pull funds if `isPull` = true\n\t\t*\n\t\t*/\n\tfunction depositCollateral(address asset, uint256 amount, bool isPull) public {\n\t\tif (isPull) {\n\t\t\tIERC20(asset).safeTransferFrom(msg.sender, address(this), amount);\n\t\t}\n\t\tIERC20(asset).safeApprove(address(lendingPool), amount);\n\t\tlendingPool.deposit(asset, amount, address(this), 0);\n\t}\n\n\t/**\n\t\t* Approves the borrower to take an uncollaterised loan\n\t\t* @param borrower The borrower of the funds (i.e. delgatee)\n\t\t* @param amount The amount the borrower is allowed to borrow (i.e. their line of credit)\n\t\t* @param asset The asset they are allowed to borrow\n\t\t*\n\t\t* Add permissions to this call, e.g. only the owner should be able to approve borrowers!\n\t\t*/\n\tfunction approveBorrower(address borrower, uint256 amount, address asset) public {\n\t\t(, address stableDebtTokenAddress,) = dataProvider.getReserveTokensAddresses(asset);\n\t\tIStableDebtToken(stableDebtTokenAddress).approveDelegation(borrower, amount);\n\t}\n\n\t/**\n\t\t* Borrows some the uncollaterised loan\n\t\t* @param amount The amount the borrower is allowed to borrow (i.e. their line of credit)\n\t\t* @param asset The asset they are allowed to borrow\n\t\t* @param delegator The delegator of the funds\n\t\t*\n\t\t* Add permissions to this call, e.g. only the delegatee should be able to approve borrowers!\n\t\t*/\n\tfunction borrowCredit(uint256 amount, address asset, address delegator) public {\n\t\tlendingPool.borrow(asset, amount, 1, 0, delegator);\n\t}\n\n\t/**\n\t\t* Checks allowance for loan\n\t\t* @param delegator The delegator of the funds\n\t\t* @param delegatee The delegatee of the funds\n\t\t* @param asset The asset they are allowed to borrow\n\t\t*/\n\tfunction checkAllowance(address delegator, address delegatee, address asset) public view returns(uint256) {\n\t\t(, address stableDebtTokenAddress,) = dataProvider.getReserveTokensAddresses(asset);\n\t\treturn IStableDebtToken(stableDebtTokenAddress).borrowAllowance(delegator, delegatee);\n\t}\n\n\t/**\n\t\t* Repay an uncollaterised loan\n\t\t* @param amount The amount to repay\n\t\t* @param asset The asset to be repaid\n\t\t*\n\t\t* User calling this function must have approved this contract with an allowance to transfer the tokens\n\t\t*\n\t\t* You should keep internal accounting of borrowers, if your contract will have multiple borrowers\n\t\t*/\n\tfunction repayBorrower(uint256 amount, address asset) public {\n\t\tIERC20(asset).safeTransferFrom(msg.sender, address(this), amount);\n\t\tIERC20(asset).safeApprove(address(lendingPool), amount);\n\t\tlendingPool.repay(asset, amount, 1, address(this));\n\t}\n\n\t/**\n\t\t* Withdraw all of a collateral as the underlying asset, if no outstanding loans delegated\n\t\t* @param asset The underlying asset to withdraw\n\t\t*\n\t\t* Add permissions to this call, e.g. only the owner should be able to withdraw the collateral!\n\t\t*/\n\tfunction withdrawCollateral(address asset) public {\n\t\t(address aTokenAddress,,) = dataProvider.getReserveTokensAddresses(asset);\n\t\tuint256 assetBalance = IERC20(aTokenAddress).balanceOf(address(this));\n\t\tlendingPool.withdraw(asset, assetBalance, owner);\n\t}\n}",
  "sourcePath": "/Users/merlinegalite/Desktop/Blockchain/Projects/the-cool-project/truffle/contracts/CreditDelegation.sol",
  "compiler": {
    "name": "solc",
    "version": "0.6.12+commit.27d51765.Emscripten.clang"
  },
  "schemaVersion": "3.2.4",
  "updatedAt": "2020-12-16T20:02:49.107Z",
  "networkType": "ethereum",
  "devdoc": {
    "details": "comments",
    "kind": "dev",
    "methods": {
      "approveBorrower(address,uint256,address)": {
        "params": {
          "amount": "The amount the borrower is allowed to borrow (i.e. their line of credit)",
          "asset": "The asset they are allowed to borrow Add permissions to this call, e.g. only the owner should be able to approve borrowers!",
          "borrower": "The borrower of the funds (i.e. delgatee)"
        }
      },
      "borrowCredit(uint256,address,address)": {
        "params": {
          "amount": "The amount the borrower is allowed to borrow (i.e. their line of credit)",
          "asset": "The asset they are allowed to borrow",
          "delegator": "The delegator of the funds Add permissions to this call, e.g. only the delegatee should be able to approve borrowers!"
        }
      },
      "checkAllowance(address,address,address)": {
        "params": {
          "asset": "The asset they are allowed to borrow",
          "delegatee": "The delegatee of the funds",
          "delegator": "The delegator of the funds"
        }
      },
      "depositCollateral(address,uint256,bool)": {
        "params": {
          "amount": "The amount to be deposited as collateral",
          "asset": "The asset to be deposited as collateral",
          "isPull": "Whether to pull the funds from the caller, or use funds sent to this contract  User must have approved this contract to pull funds if `isPull` = true"
        }
      },
      "repayBorrower(uint256,address)": {
        "params": {
          "amount": "The amount to repay",
          "asset": "The asset to be repaid User calling this function must have approved this contract with an allowance to transfer the tokens You should keep internal accounting of borrowers, if your contract will have multiple borrowers"
        }
      },
      "withdrawCollateral(address)": {
        "params": {
          "asset": "The underlying asset to withdraw Add permissions to this call, e.g. only the owner should be able to withdraw the collateral!"
        }
      }
    },
    "version": 1
  },
  "userdoc": {
    "kind": "user",
    "methods": {
      "approveBorrower(address,uint256,address)": {
        "notice": "Approves the borrower to take an uncollaterised loan"
      },
      "borrowCredit(uint256,address,address)": {
        "notice": "Borrows some the uncollaterised loan"
      },
      "checkAllowance(address,address,address)": {
        "notice": "Checks allowance for loan"
      },
      "depositCollateral(address,uint256,bool)": {
        "notice": "Deposits collateral into the Aave, to enable credit delegation This would be called by the delegator."
      },
      "repayBorrower(uint256,address)": {
        "notice": "Repay an uncollaterised loan"
      },
      "withdrawCollateral(address)": {
        "notice": "Withdraw all of a collateral as the underlying asset, if no outstanding loans delegated"
      }
    },
    "notice": "This is a proof of concept starter contract, showing how uncollaterised loans are possible using Aave v2 credit delegation. This example supports stable interest rate borrows. It is not production ready (!). User permissions and user accounting of loans should be implemented.",
    "version": 1
  }
}